:020000040800F2
:10000000E02C00209D0100088B0600085106000826
:1000100089060008090200083513000800000000E6
:10002000000000000000000000000000AF01000818
:100030000904000800000000B3010008B501000831
:10004000B7010008B7010008B7010008B7010008B0
:10005000B7010008B701000851040008B701000803
:100060008904000805050008B7010008B701000869
:10007000B7010008B7010008B701000895020008A1
:10008000B7010008B7010008B7010008B701000870
:10009000B7010008B7010008B7010008B701000860
:1000A000C50D0008B7010008B7010008B701000836
:1000B000B7010008B7010008B7010008B701000840
:1000C000B7010008B7010008B7010008B701000830
:1000D000A50B00089D100008D5110008B701000805
:1000E000B7010008B7010008B7010008B701000810
:1000F000B7010008B7010008B7010008B701000800
:10010000B7010008890A0008B7010008B701000814
:10011000B7010008B7010008890E0008B701000800
:10012000B7010008B7010008B7010008B7010008CF
:10013000B7010008B7010008B7010008B7010008BF
:10014000B7010008B7010008B7010008B7010008AF
:10015000F10200081D030008B7010008B7010008FC
:10016000B7010008B7010008B7010008B70100088F
:10017000B7010008B7010008B7010008B70100087F
:10018000B7010008B7010008DFF80CD000F02AF82A
:1001900000480047F5130008E02C0020064880477F
:1001A00006480047FEE7FEE7FEE7FEE7FEE7FEE75C
:1001B000FEE7FEE7FEE7FEE7310D000889010008D3
:1001C000D2B201E000F8012B491EFBD27047002299
:1001D000F6E710B513460A4604461946FFF7F0FF46
:1001E000204610BD064C074D06E0E06840F00103D4
:1001F00094E8070098471034AC42F6D3FFF7C8FFE5
:100200002014000840140008FEE7000010B5044662
:100210001348016811F0450FFBD0042000F02AFCC0
:1002200020B1042000F020FC032010BD012000F0CC
:1002300021FC20B1012000F017FC012010BD08486E
:1002400024380068A04201D0102010BD40F2FF50B9
:1002500000F00AFC02482038006800F0080010BDD9
:10026000342C014010B50A4C0849204600F06AF8C9
:100270000021204600F092F88021204600F0C2F8CC
:100280002046BDE81040012100F088B82000002081
:100290007060024070B5084C084D2146284600F0B9
:1002A00087F8002807D02146284600F061F8BDE80D
:1002B000704000F005B870BD2080002070600240E2
:1002C00010B50A4C0849204600F03CF800212046B1
:1002D00000F064F88021204600F094F82046BDE844
:1002E0001040012100F05AB8000800208864024044
:1002F00070B5084C084D2146284600F059F80028F2
:1003000007D02146284600F033F8BDE87040FFF7DB
:10031000A9BF70BD008800208864024070B5074CFA
:10032000074D2146284600F043F8002805D0214615
:100330002846BDE8704000F01BB870BD008020204A
:10034000A0640240074A904201D2074801E00548F4
:100350001038064A8B0001EA020101D5C1607047DE
:100360008160704710640240006002407D0F7D0F85
:10037000074A904201D2074801E005481038064A72
:100380008B0001EA020101D5C160704781607047AE
:1003900010640240006002407D0F7D0F002901685B
:1003A00002D041F0010101E021F00101016070473C
:1003B00030B5104A0024904201D20F4A01E00D4AA4
:1003C000103A0E4B194205D01E2303EAD1250368CB
:1003D0002B4002E0406900F08003880001D550689E
:1003E00000E01068064A1040084201D003B1012421
:1003F000204630BD10640240006002403C0F3C0FBC
:100400007D0F7D0F41607047704700003EB50121B0
:10041000480400F0D3FA0020ADF80800ADF802005F
:1004200042F210700190A720074CADF80000694619
:10043000204600F075FD0021044800F04BFD00212E
:10044000204600F054FD3EBD004401400040014004
:1004500010B5012000F0A2F801280CD14102084893
:1004600000F0F4F807490878401CC0B2087004286E
:1004700001D900200870BDE81040012000F088B8C4
:10048000000402401800002010B5042000F086F897
:1004900001282ED14102194800F0D6F8184900224F
:1004A0000878012806D002280CD0032812D004288E
:1004B0001FD117E08878401CC0B28870632818D11B
:1004C0008A7016E0C878401CC0B2C870632810D18A
:1004D000CA700EE00879401CC0B20871632808D1C8
:1004E0000A7106E04879401CC0B24871632800D107
:1004F0004A71BDE81040042000F04AB800040240F0
:100500001800002010B5082000F048F8012835D167
:1005100041021D4800F098F81C4863220178062922
:100520002CD2DFE801F02B030B131B238178491E2B
:1005300011F0FF01817021D182701FE0C178491E46
:1005400011F0FF01C17019D1C27017E00179491E85
:1005500011F0FF01017111D102710FE04179491EC3
:1005600011F0FF01417109D1427107E04178491E44
:1005700011F0FF01417001D11E214170BDE8104012
:10058000082000F005B80000000402401800002018
:100590000149086070470000143C0140034A0146CD
:1005A000002012680A4200D001207047143C01402C
:1005B000F0B5002201274FF0030C0B6807FA02F593
:1005C0002B40AB422CD1066853000CFA03F4A6432F
:1005D00006600E79D0F800E09E4046EA0E060660FE
:1005E0000E79012E01D0022E12D18668A6438660B4
:1005F0004E79D0F808E09E4046EA0E0686604668CE
:10060000AE43466045688E799640B6B23543456044
:10061000C568A543C560CC799C40C3681C43C460D1
:10062000521C102AC9D3F0BD4B07DB0E9A40C908F3
:1006300010B500EB8100016A0F249C40A1430162C8
:10064000016A1143016210BD418370470183704705
:10065000FEE7000010B50A4C0A484FF400716278BA
:100660002AB1FFF7F3FF142000F094FE04E0FFF737
:10067000EBFF142000F06EFE6078C043607010BD88
:100680003400002000040240FEE7704730B50F231D
:10069000C27801780125FAB1144A126801F1E0210B
:1006A00002F4E062C2F5E062C2F30722C2F1040480
:1006B000D3404278A24084781C401443220181F840
:1006C0000024007800F01F018D404009800000F1F7
:1006D000E020C0F8005130BD01F01F0085404809FE
:1006E000800000F1E020C0F8805130BD0CED00E04A
:1006F0000249084302490860704700000000FA05FB
:100700000CED00E010B502464FF480610348FFF79E
:1007100057FDBDE8104000F00BB9000014060020A2
:1007200070B500F06DF8354D4FF4804421462846F1
:10073000FFF78AFF052000F02DFE21462846FFF72F
:1007400085FF052000F026FEA82000F0D5F83F2008
:1007500000F0D2F8D32000F0CFF8002000F0CCF861
:10076000402000F0C9F8D52000F0C6F8F12000F0D4
:10077000C3F8A02000F0C0F8C02000F0BDF8DA20D7
:1007800000F0BAF8122000F0B7F8812000F0B4F8B9
:10079000FF2000F0B1F8D92000F0AEF8F12000F011
:1007A000ABF8DB2000F0A8F8302000F0A5F8A4207A
:1007B00000F0A2F8A62000F09FF8202000F09CF89E
:1007C000002000F099F8C02000F096F8A12000F079
:1007D00093F8232000F090F8002000F08DF88D2091
:1007E00000F08AF8142000F087F8AF2000F084F8B9
:1007F000BDE870400020FFF785BF00000004024004
:100800002DE9F041012188B0880300F0CBF80121E7
:10081000022000F0BBF802268DF8046003274FF495
:1008200020408DF805700024DFF88C8000908DF852
:10083000064001258DF8075069464046FFF7B8FE8F
:100840008DF804504FF4A0408DF8057000908DF89D
:1008500006408DF8075069464046FFF7A9FE05227D
:100860000D214046FFF7E0FE05220F214046FFF72D
:10087000DBFEADF808404FF48270ADF80A00ADF829
:1008800010506802ADF812001020ADF81400ADF859
:100890000C40ADF816400720084CADF81800ADF834
:1008A0000E6002A9204600F0CCF90121204600F09C
:1008B00095F908B0BDE8F08100040240003800401E
:1008C00070B505464FF480510948FFF7BFFE094C4B
:1008D0000221204600F096F90028F9D0294620464A
:1008E00000F0ADF92046BDE87040022100F080B96B
:1008F000000402400038004070B505464FF48051B6
:100900000948FFF7A1FE094C0221204600F07AF9C0
:100910000028F9D02946204600F091F92046BDE88C
:100920007040022100F064B9000402400038004029
:100930002DE9F0412120FFF7DFFF0020FFF7DCFF6A
:100940007F20FFF7D9FF052000F024FD2220FFF7CC
:10095000D3FF0020FFF7D0FF0720FFF7CDFF0520D2
:1009600000F018FD084F0025002407EBC516305D88
:10097000FFF7A6FF641CE4B2802CF8D36D1CEDB227
:10098000082DF1D3BDE8F08114060020044A0029A7
:10099000116801D0014300E08143116070470000FD
:1009A00030380240044A0029116801D0014300E0B8
:1009B000814311607047000040380240044A00291A
:1009C000116801D0014300E08143116070470000CD
:1009D0004438024070B5204B1968204C11F00C01CE
:1009E00004D01F4E042903D0082903D004601BE063
:1009F000066019E0184A121F1168C1F3805511688A
:100A000001F03F0115B1B6FBF1F101E0B4FBF1F1EA
:100A100014681268C4F388146143C2F30142521C83
:100A20005200B1FBF2F1016019680F2202EA1111C4
:100A30000C4A545C0168E14041601C68072505EAE6
:100A40009424145D21FA04F484601B6805EA53338E
:100A5000D25CD140C16070BD083802400024F4006F
:100A600040787D01000000200149086070470000C7
:100A7000382C0140034A0146002012680A4200D087
:100A800001207047342C014000F014B810B5084A1A
:100A900001681160131D1968D0E901242243D0E9CF
:100AA000034004436FF30A0122430A431A6010BD56
:100AB000082C01402DE9F0414FF48070FFF7DAFF78
:100AC000354C364D4CF23A3610B3A8780021012847
:100AD0000ED0E9703048001F016841F48071016058
:100AE0002068B043206001202871E878BDE8F081DB
:100AF0002B480C22C0E900124022C0E9022111015A
:100B00000161FFF7C3FF0C20FFF780FBE870E1E70E
:100B10000220FFF7AFFF40B10220FFF7A5FF2068DA
:100B2000B04320600220E870E0E70820FFF7A2FF52
:100B300040B10820FFF798FF2068B04320600420F0
:100B4000E870D3E72020FFF795FF40B12020FFF7A2
:100B50008BFF2068B04320600620E870C6E71020B5
:100B6000FFF788FF40B11020FFF77EFF2068B043F9
:100B700020600520E870B9E74FF400773846FFF7AA
:100B800079FF0028B2D03846FFF76EFF2068B043E7
:100B900020600720E870A9E73C2C014024000020D9
:100BA0002C0A002070B50B4D7121284600F031F859
:100BB000094C012801D0206806E07121284600F088
:100BC0001AF82068401C2060B0F5806F01D1002029
:100BD000206070BD0038004010000020002901880E
:100BE00002D041F0400101E021F040010180704756
:100BF000C9430181704701F00F0201219140C943AF
:100C0000018170470246002012890A4200D001206B
:100C1000704730B501F00F030125024605FA03F4D1
:100C20000020A3B2090905FA01F49188A4B212893F
:100C300021401A4202D0002900D0012030BD81811C
:100C4000704730B502884C8802F441530A88CD8839
:100C500022438C882C4322430C8922434C89224313
:100C60008C892243CC8922431A430280828B22F44E
:100C700000628283098A018230BD00000CB5002227
:100C8000274900920192086840F4803008604FF4D0
:100C9000A043086800F4003001900098401C0090C8
:100CA000019810B900989842F3D10868800334D5B0
:100CB000012001901A484030026842F080520260E0
:100CC0001848026842F44042026015480830026841
:100CD0000260026842F400420260026842F4A052DC
:100CE0000260031F104A1A600A6842F080720A60AC
:100CF0000A689201FCD50D4940F205720A6001684C
:100D000021F003010160016841F002010160016806
:100D1000C1F381010229FAD10CBD01920CBD000082
:100D2000003802400070004019544007003C024067
:100D3000124810B5016841F4700101601048016863
:100D400041F0010101600E4A002108321160026881
:100D50000C4B1A400260031D0B4A1A60026822F411
:100D60008022026006480C300160FFF787FF0349CC
:100D70004FF000608039086010BD000088ED00E091
:100D800000380240FFFFF6FE10300024044AFF291D
:100D9000105C02D0814301D00020704701207047D1
:100DA000C80C0020024A135C8B43135470470000A8
:100DB000C80C0020024A135C0B4313547047000018
:100DC000C80C002070B52E4D0121284600F099F87E
:100DD00001284ED12B4C2178C82902D9002020703F
:100DE00040E00320B1FBF0F200FB121018B9022121
:100DF0000020FFF7DFFF20780521B0FBF1F201FBB7
:100E0000120018B904210020FFF7D4FF20780A212E
:100E1000B0FBF1F201FB120018B908210020FFF726
:100E2000C9FF20781421B0FBF1F201FB120018B9C0
:100E300010210020FFF7BEFF20783221B0FBF1F235
:100E400001FB120018B920210020FFF7B3FF207822
:100E50006421B0FBF1F201FB120018B9402100201F
:100E6000FFF7A8FF01210020FFF7A4FF2078401C16
:100E700020702846BDE87040012100F035B8000020
:100E8000004001403600002070B5104C0121204682
:100E900000F037F8012813D1616A20464FF47A72C6
:100EA000B1FBF2F30A4A1188491C118001EBC1051C
:100EB00005EB011103EB41015180002100F017F80F
:100EC0002046BDE87040012100F00EB8001000403F
:100ED0001E0000200029018802D041F0800101E0BD
:100EE00021F0800101807047C943018270470029C9
:100EF000018802D041F0010101E021F001010180EF
:100F0000704702460020128A0A4200D00120704732
:100F1000002A828901D00A4300E08A438281704717
:100F200030B50288164C174DA0420DD0A8420BD008
:100F3000B0F1804F08D0144B984205D0134B984223
:100F400002D0134B984203D122F070034A881A430F
:100F5000104B984206D0104B984203D022F44073B5
:100F60000A891A4302804A68C2620A880285A0423E
:100F700001D0A84201D1897A01860121818230BD48
:100F8000000001400004014000040040000800404F
:100F9000000C004000100040001400401FB501216B
:100FA0000804FFF70BFD0020ADF80800ADF80200C3
:100FB00042F210700190A720114CADF80000694674
:100FC0002046FFF7ADFF18218DF80C1002218DF897
:100FD0000D1003218DF80E1001208DF80F0003A8CD
:100FE000FFF754FB01212046FFF774FF0122114651
:100FF0002046FFF78DFF01212046FFF778FF1FBD38
:101000000040014010B501210020FFF7BFFE01287C
:1010100003D101210020FFF7C5FE02210020FFF7C8
:10102000B5FE012803D102210020FFF7BBFE0421F9
:101030000020FFF7ABFE012803D104210020FFF7B9
:10104000B1FE08210020FFF7A1FE012803D10821ED
:101050000020FFF7A7FE10210020FFF797FE0128D0
:1010600003D110210020FFF79DFE20210020FFF773
:101070008DFE012805D1FFF7EDFA20210020FFF7B2
:1010800091FE40210020FFF781FE012805D140217B
:10109000BDE810400020FFF785BE10BD2DE9F041EE
:1010A000DFF8608040F22551404600F0AEF8164F60
:1010B000164C40F2DC55002650B12088A84200D3DF
:1010C0002680404600F02EF921887854491C218062
:1010D00040F22661404600F098F858B16088A84276
:1010E00000D366806088395C404600F01FF9608854
:1010F000401C60804046BDE8F04140F2277100F09E
:1011000074B80000001001403800002014000020D6
:101110002DE9F04387B01C4691460E00804601D170
:1011200004B1002401211020FFF748FC01210846EA
:10113000FFF72CFC4FF4C060049002208DF81400DF
:1011400001258DF81750214F8DF8150004A9384658
:10115000FFF72EFA072209213846FFF765FA072222
:101160000A213846FFF760FAADF808400C20ADF8C8
:101170000A000020164CADF80460ADF80C00CDF864
:101180000080ADF806906946204600F075F82520ED
:101190008DF818008DF819508DF81A508DF81B50E5
:1011A00006A8FFF773FA40F2FF31204600F01AF864
:1011B000012240F26551204600F046F80121204608
:1011C00000F019F807B0BDE8F0830000000002400D
:1011D0000010014040F22771014800F006B80000FD
:1011E00000440040C943018070470A0A0121914030
:1011F000C943018070470029818902D041F4005120
:1012000001E021F400518181704770B501F01F05A4
:1012100001260024C1F3421306FA05F2012B0FD078
:10122000022B0FD0838A4FEA11210088134206FA5D
:1012300001F600EA060001D000B10124204670BD8D
:101240008389F0E7038AEEE710B5C1F3421301F09A
:101250001F040121A140012B07D0022B07D014301D
:10126000002A026805D00A4304E00C30F8E7103089
:10127000F6E78A43026010BD7FB50446008A0D463A
:10128000C98820F4405001432182A08941F20C61B9
:101290008843A9882A8911436A8902431143A1819D
:1012A000A08A20F44071A8890843A0826846FFF70D
:1012B00091FB1A48844202D01948844201D1039814
:1012C00000E00298A189090400EBC00101EB0010C5
:1012D000296801D5490000E08900B0FBF1F06422E3
:1012E000B0FBF2F109010B096FF018056B4300EB3D
:1012F0008300A3891D044FF0320306D503EBC00021
:10130000B0FBF2F000F0070005E003EB0010B0FBCB
:10131000F2F000F00F00084320817FBD0010014073
:10132000001401408088C0F308007047C1F3080131
:1013300081807047FEE702E008C8121F08C1002A3A
:10134000FAD170477047002001E001C1121F002A46
:10135000FBD170472DE9F0410D4D002604462E606B
:101360000B4F0121243F3846FFF7C1FD00204FF409
:101370007A7205E02E6029689142FCD3401C80B24D
:10138000A042F7D33846BDE8F0410021FFF7AFBDDA
:101390002444014070B5094C054600202060074EEA
:1013A0000121243E3046FFF7A2FD2068A842FCD36D
:1013B0003046BDE870400021FFF799BD244401404C
:1013C0001CB501210220FFF7E1FA4FF400700090F4
:1013D00001208DF8040002218DF8051000218DF800
:1013E00006108DF8070069460148FFF7E1F81CBDBB
:1013F000000402404FF4A060FFF77AF900231A4678
:1014000019464FF4E130FFF783FEFEF7FFFFFFF7C9
:10141000D7FFFFF785F9FFF7C1FDFFF7F3FDFCE705
:1014200040140008000000203800000036130008B7
:101430007814000838000020A82C0000461300088B
:10144000000000000102030401020304060708096A
:10145000000000000000000000001919282800000A
:10146000000000000001000000000000000000007B
:08147000000000000000000074
:040000050800018965
:00000001FF
