:020000040800F2
:1000000010330020A1010008510C00084D0C00081D
:100010004F0C0008AD020008111E0008000000008F
:10002000000000000000000000000000B301000814
:100030000506000800000000B7010008B90100082B
:10004000BB010008BB010008BB010008BB010008A0
:10005000BB010008BB0100084D060008BB010008F9
:100060008506000801070008BB010008BB01000865
:10007000BB010008BB010008BB0100089104000897
:10008000BB010008BB010008BB010008BB01000860
:10009000BB010008BB010008BB010008BB01000850
:1000A000AD180008BB010008BB010008BB01000837
:1000B000BB010008BB010008BB010008BB01000830
:1000C000BB010008BB010008BB010008BB01000820
:1000D00019170008651A0008D11B0008BB010008A9
:1000E000BB010008BB010008BB010008BB01000800
:1000F000BB010008BB010008BB010008BB010008F0
:10010000BB0100082D0F0008BB010008BB0100085F
:10011000BB010008BB01000871190008BB01000801
:10012000BB010008BB010008BB010008BB010008BF
:10013000BB010008BB010008BB010008BB010008AF
:10014000BB010008BB010008BB010008BB0100089F
:10015000ED04000819050008BB010008BB010008F8
:10016000BB010008BB010008BB010008BB0100087F
:10017000BB010008BB010008BB010008BB0100086F
:10018000BB010008BB010008DFF810D000F07CF8CC
:1001900000480047D5210008AFF30080103300204D
:1001A0000648804706480047FEE7FEE7FEE7FEE711
:1001B000FEE7FEE7FEE7FEE7FEE7FEE74118000880
:1001C0008901000840EA01039B0703D009E008C940
:1001D000121F08C0042AFAD203E011F8013B00F80C
:1001E000013B521EF9D270472DE9F05F0546002011
:1001F00092469B4688460646814640241BE0284698
:1002000041464746224600F02FF853465A46C01A48
:10021000914110D311461846224600F016F82D1AC7
:1002200067EB01084F4622460120002100F00DF83F
:1002300017EB00094E41201EA4F10104DFDC484603
:1002400031462A464346BDE8F09F202A04DB203A87
:1002500000FA02F1002070479140C2F1200320FA19
:1002600003F3194390407047202A04DB203A21FA17
:1002700002F00021704721FA02F3D040C2F12002BF
:100280009140084319467047064C074D06E0E06868
:1002900040F0010394E8070098471034AC42F6D3CD
:1002A000FFF776FFB8220008D8220008FEE770B5F5
:1002B00000254FF4803405E0802000F025FE08B1D1
:1002C00044B101E0641EF7D240F2FF5000F0F4FDAB
:1002D000284670BD032070BD10B504461348016860
:1002E00011F0450FFBD0042000F00EFE20B10420D9
:1002F00000F0E2FD032010BD012000F005FE20B15A
:10030000012000F0D9FD012010BD08482438006804
:10031000A04201D0102010BD40F2FF5000F0CCFDF3
:1003200002482038006800F0080010BD342C01405D
:1003300010B500244FF480310E4809E0026812F035
:10034000450F05D009B1500705D5032404200CE062
:10035000491EF3D2F7E7012000F0D6FD18B10124C1
:10036000204600F0A9FD40F2FF5000F0A5FD204618
:1003700010BD0000342C014010B50A49086810F087
:10038000450FFBD0042000F0BFFD20B1042000F099
:1003900093FD032010BD40F2FF5000F08DFD0020C2
:1003A00010BD0000342C014070B506461C480D46B7
:1003B0000024026812F0450FFBD0042000F0A4FDD9
:1003C00020B1042000F078FD032070BD012000F072
:1003D0009BFD20B1012000F06FFD012070BD104891
:1003E00024380068B04212D140F2FF5000F064FDA2
:1003F0000B482038026812F4604F03D0900404D5F3
:10040000132070BD100C288007E0500401D5102087
:1004100070BD100401D50F2070BD204670BD0000D6
:10042000342C014010B500244FF480320B4809E011
:10043000016811F0450F05D00AB1480705D503241E
:10044000042006E0521EF3D2F7E7480603D5002445
:10045000402000F031FD204610BD0000342C01404A
:1004600010B50A4C0849204600F06AF800212046E1
:1004700000F092F88021204600F0C2F82046BDE846
:100480001040012100F088B8200000207060024078
:1004900070B5084C084D2146284600F087F8002822
:1004A00007D02146284600F061F8BDE8704000F012
:1004B00005B870BD208000207060024010B50A4C65
:1004C0000849204600F03CF80021204600F064F87E
:1004D0008021204600F094F82046BDE8104001211C
:1004E00000F05AB8000800208864024070B5084C3B
:1004F000084D2146284600F059F8002807D021462B
:10050000284600F033F8BDE87040FFF7A9BF70BD82
:10051000008800208864024070B5074C074D2146D2
:10052000284600F043F8002805D021462846BDE8BB
:10053000704000F01BB870BD00802020A064024015
:10054000074A904201D2074801E005481038064AA0
:100550008B0001EA020101D5C160704781607047DC
:1005600010640240006002407D0F7D0F074A9042F8
:1005700001D2074801E005481038064A8B0001EA1D
:10058000020101D5C160704781607047106402406C
:10059000006002407D0F7D0F0029016802D041F00C
:1005A000010101E021F001010160704730B5104AFE
:1005B0000024904201D20F4A01E00D4A103A0E4B3E
:1005C000194205D01E2303EAD12503682B4002E01F
:1005D000406900F08003880001D5506800E0106891
:1005E000064A1040084201D003B10124204630BD24
:1005F00010640240006002403C0F3C0F7D0F7D0FF5
:1006000041607047704700003EB50121480400F08A
:10061000ABFB0020ADF80800ADF8020042F210700C
:100620000190A720074CADF800006946204601F074
:10063000DBF90021044801F0B1F90021204601F066
:10064000BAF93EBD004401400040014010B5012010
:1006500000F0A2F801280CD14102084800F0CFFABE
:1006600007490878401CC0B20870042801D900204E
:100670000870BDE81040012000F088B80004024076
:100680001400002010B5042000F086F801282ED1B7
:100690004102194800F0B1FA1849002208780128EF
:1006A00006D002280CD0032812D004281FD117E04E
:1006B0008878401CC0B28870632818D18A7016E010
:1006C000C878401CC0B2C870632810D1CA700EE050
:1006D0000879401CC0B20871632808D10A7106E08D
:1006E0004879401CC0B24871632800D14A71BDE806
:1006F0001040042000F04AB800040240140000201A
:1007000010B5082000F048F8012835D141021D48F5
:1007100000F073FA1C486322017806292CD2DFE826
:1007200001F02B030B131B238178491E11F0FF01ED
:10073000817021D182701FE0C178491E11F0FF0144
:10074000C17019D1C27017E00179491E11F0FF0183
:10075000017111D102710FE04179491E11F0FF01C1
:10076000417109D1427107E04178491E11F0FF0142
:10077000417001D11E214170BDE81040082000F0F9
:1007800005B8000000040240140000200149086080
:1007900070470000143C0140034A014600201268E3
:1007A0000A4200D001207047143C014070B52C4C27
:1007B00055254FF480426178052945D2DFE801F0E4
:1007C000030B182533000221082000F069F80928DE
:1007D00035D1012036E06FF48041084490423DD28B
:1007E0000221102000F05CF8092828D1022029E01D
:1007F0006FF400410844904230D20221182000F0EA
:100800004FF809281BD103201CE06FF44041084435
:10081000B0F5803F22D20221202000F041F80928C3
:100820000DD104200EE06FF4E0310844B0F5003F34
:1008300014D20221282000F033F8092801D0657075
:100840000CE00520607009E0552902D0052902D08E
:1008500004E004A000E007A001F0DCFA607870BDBD
:1008600030000020B2C1B3FDC9C8C7F8CAA7B0DCC8
:100870000D0A0000C9FDBCB6CEC4BCFEB9FDB4F380
:10088000A3ACD7EEB4F3D6A7B3D63234306B42B4B0
:10089000F3D0A1B5C462696ECEC4BCFE0D0A0000DF
:1008A00070B50646002529B1012927D0022928D094
:1008B0004FF4407500F07EF809281ED1124C2068D4
:1008C00020F440702060206828432060206820F0D9
:1008D000F8002060206846F002010843206020688C
:1008E00040F48030206000F065F8216821F00201BA
:1008F0002160216821F0F801216070BD4FF48075FE
:10090000D8E74FF40075D5E7103C02400D490920A7
:100910000A68D20301D5012070470A68D20601D5C2
:10092000062070470A68D20501D5022070470A6880
:1009300012F0E00F01D00720704709688907FBD546
:10094000082070470C3C02400248016841F0004119
:1009500001607047103C024070B50D46064600F03D
:1009600029F8092811D1094C206820F44070206032
:1009700020682060206840F001002060357000F0A1
:1009800019F8216821F00101216070BD103C02407E
:1009900005480068002805DA034804490C3801605E
:1009A0000349016070470000103C02402301674585
:1009B000AB89EFCD08B509208DF80000FFF7A6FF41
:1009C0008DF800009DF800000128F7D09DF8000088
:1009D00008BD00001CB50121084600F0ADF94FF438
:1009E0008070009000208DF8040001218DF8071020
:1009F0008DF8060002208DF805006946034800F0D6
:100A0000A9F8012001F0A6FB1CBD00000000024077
:100A10002DE9FC5F00244C4F00944FF48068019452
:100A20004025C7F81080C7E902540E464FF0080B66
:100A30001021C7E900B1A146384600F0ABFA1020FA
:100A4000FFF74AFC002853D14048AA464D4600898A
:100A5000000438603720C7E9010AC7E9039838461F
:100A600000F098FA3720FFF737FC002840D1411EEC
:100A700007F11400C0E9001B302181600221C0E9A8
:100A800003150121416100F027FA3320C7F808A0BF
:100A9000C7E90050C7E90358384600F07BFA332015
:100AA000FFF71AFC050023D1DFF8A490DFF8A0803F
:100AB0004FF4001B6F46A9F14C0940F22A6AD9F89D
:100AC000000010EA0A0F0BD1584600F01DFA00286A
:100AD000F5D0D8F8000047F82400641C022CEED3AF
:100AE000082000F011FA28B1082000F0E5F90420F0
:100AF000BDE8FC9F022000F007FA20B1022000F0C0
:100B0000DBF90220F4E7202000F0FEF920B12020DC
:100B100000F0D2F90620EBE74FF40074204600F015
:100B2000F3F920B1204600F0C7F90720E0E740F2D2
:100B3000FF5000F0C1F9009800BA7060019800BA47
:100B400030602846D4E700005C0000201C00002034
:100B5000802C0140F0B5002201274FF0030C0B68F8
:100B600007FA02F52B40AB422CD1066853000CFA71
:100B700003F4A64306600E79D0F800E09E4046EAF2
:100B80000E0606600E79012E01D0022E12D1866863
:100B9000A64386604E79D0F808E09E4046EA0E06ED
:100BA00086604668AE43466045688E799640B6B228
:100BB00035434560C568A543C560CC799C40C36892
:100BC0001C43C460521C102AC9D3F0BD4B07DB0E76
:100BD0009A40C90810B500EB8100016A0F249C40BF
:100BE000A1430162016A1143016210BD0246002067
:100BF00012690A4200D00120704741837047018387
:100C00007047000007490868074A1040B0F1005FCC
:100C100002D006A001F0FEB84868096881F3088890
:100C200000470000004000080000FE2FD5BBB5D8EB
:100C3000D6B7B4EDCEF3A3ACC7EBBCECB2E9C9FDBB
:100C4000BCB6CEC4BCFE0D0A00000000FEE7FEE705
:100C50007047000030B50F23C27801780125FAB142
:100C6000144A126801F1E02102F4E062C2F5E06288
:100C7000C2F30722C2F10404D3404278A240847830
:100C80001C401443220181F80024007800F01F0169
:100C90008D404009800000F1E020C0F8005130BDD7
:100CA00001F01F0085404809800000F1E020C0F8F5
:100CB000805130BD0CED00E0024908430249086054
:100CC000704700000000FA050CED00E07FB501213F
:100CD000102000F03DF84CF24F3001905320154D9C
:100CE0000024ADF80000ADF808406946284600F041
:100CF0007BFE36208DF80C0001218DF80F108DF849
:100D00000D108DF80E1003A8FFF7A4FF0122114665
:100D1000284600F061FE0121284600F049FE01212D
:100D2000284600F03BFE6C620021284600F043FE9E
:100D30007FBD000000100040044A0029116801D066
:100D4000014300E0814311607047000030380240E9
:100D5000044A0029116801D0014300E08143116079
:100D60007047000040380240044A0029116801D051
:100D7000014300E0814311607047000044380240A5
:100D8000044A0029116801D0014300E08143116049
:100D9000704700002438024070B5204B1968204C81
:100DA00011F00C0104D01F4E042903D0082903D0F0
:100DB00004601BE0066019E0184A121F1168C1F3B5
:100DC0008055116801F03F0115B1B6FBF1F101E06A
:100DD000B4FBF1F114681268C4F388146143C2F3E0
:100DE0000142521C5200B1FBF2F1016019680F225E
:100DF00002EA11110C4A545C0168E14041601C6830
:100E0000072505EA9424145D21FA04F484601B6824
:100E100005EA5333D25CD140C16070BD083802404E
:100E20000024F40040787D01000000202DE9FC4101
:100E3000002600963546019600B102251B48006841
:100E4000800102D50E20BDE8FC81194C694620893D
:100E500080B2FFF7DDFD0028F5D10198400322D5CF
:100E60002089144C00044FF0400820603720C4E96A
:100E700001084FF480672046C4E9036700F08AF850
:100E80003720FFF729FA0028DDD10620C4F80880B2
:100E9000C4E90050C4E90367204600F07BF806204F
:100EA000FFF71AFACFE72520CDE70000142C014008
:100EB0001C0000205C000020014908607047000011
:100EC000382C0140034A116821F0FF0101431160F1
:100ED00070470000042C014010B50A4A01681160F7
:100EE000121D41681160131D1968D0E902242243C4
:100EF000D0E90440044321F0F70122430A431A6079
:100F000010BD0000242C0140034A01460020126855
:100F10000A4200D001207047342C0140024800688A
:100F200000F0030070470000002C014000F05ABBA5
:100F300030B5094B1A6847F6FF618A43017D846822
:100F4000C568214344682C43214304680069214358
:100F500001431143196030BD042C01400B490020AE
:100F60000860091D0860091D0860091D086007491F
:100F700024310860091D0860091D0860034A0449FE
:100F800038321160111D086070470000002C0140CC
:100F9000FF07C00010B5084A01681160131D1968E9
:100FA000D0E901242243D0E9034004436FF30A014E
:100FB00022430A431A6010BD082C01400149086011
:100FC00070470000002C014010B510490446002075
:100FD0000978032917D019B1012901D0022911D1AB
:100FE000B4F5805F0FD0E0B2FFF720FF002809D1F1
:100FF00007490A6822F4C0520A600A6822430A605C
:101000000A680A6010BD272010BD00001C000020E7
:10101000042C01402DE9F0477A49DFF8EC814FF0CC
:1010200000090B7880F84E300989A0F84C10D8F8E8
:1010300000104FF0010A0A0E94090470C2F38304F1
:10104000447002F0030282700A0CC2700A0A027134
:101050004171D8F80420110E0C01C2F3074144EA93
:10106000111401F00F0CC480C2F3072180F808C0EE
:10107000CC094472C1F380148472C1F34014C47269
:10108000C1F300140473444680F80D90A468260E42
:10109000C4F30745C4F3072733B1012B04D0032B56
:1010A00002D0022B22D02EE08907090DD2B241EAEC
:1010B000820141EA96120261C6F3C201017506F08F
:1010C0000701417569098175C5F38201C175A907D9
:1010D0004B0F394643EAD1130376521C9B1C9A40AE
:1010E0000AFA0CF35A43C0E911230CE09106890A6D
:1010F00041EA06222A430261521CD20442644FF4A0
:10110000007239468264C1F38012427689064A0E23
:10111000E1B242EAD11200F81A2F01F07F014170CA
:10112000D8F80C20110ECB098370C1F34113C370A2
:10113000C1F38203037189070B0FC2F3074143EA2E
:1011400091134371C1F34013837180F8079001F04C
:1011500001010172C2F30721CC094472C1F380146A
:101160008472C1F34014C472C1F300140473C1F358
:101170008104447301F003018173C2F34601224AE2
:10118000C173103280F810A011684B460D0E8574A3
:101190000D0CC1F3072646EA052585820D06516828
:1011A00054460E0E45EA0645C1F3074645EA0625B4
:1011B000C1F307263543C0F8165000F81A1F91688E
:1011C0000D0E45700D0CC1F307262D0645EA0645A8
:1011D000C9B245EA0125D16845EA11654560057A3D
:1011E000C1F3074245EA12150572C1F3072512073C
:1011F00045EA12524281C1F3460101734473184615
:10120000BDE8F0871C000020880000202DE9FE4387
:1012100001213F48FFF790FD0121CD022846FFF74D
:10122000A3FD01212846FFF7ABFD4FF4F8500090D5
:1012300002208DF804008DF805000026DFF8D48028
:101240008DF8066001248DF8074069464046FFF797
:1012500081FC0420304F009069463846FFF77AFC45
:101260000C2208214046FFF7B1FC0C220921404620
:10127000FFF7ACFC0C220A214046FFF7A7FC0C222A
:101280000B214046FFF7A2FC0C2211464046FFF717
:101290009DFC0C2202213846FFF798FC00212846CD
:1012A000FFF76EFDFFF75AFE31208DF808008DF82C
:1012B00009408DF80A608DF80B4002A8FFF7CAFCC0
:1012C00000F0BEF8154C80B900F02CF868B9204643
:1012D000FFF7A0FE48B9B4F84C00000400F0FAF99A
:1012E00018B92846FFF770FE18B10D49097803298F
:1012F0000AD194F84E0048B1012807D00820FFF722
:10130000E1FD002000F0FCF9BDE8FE830A20F6E7CD
:101310000C00400000080240000C0240A800002021
:101320001C0000202DE9F84F0120ADF80000FFF768
:10133000F5FDB0B33F4F3878042878D03E4C0025F7
:101340000220E4E80250C0204FF4806684E8610087
:101350003948083CFFF71EFEFEF7EAFF002822D1BD
:10136000DFF8D8A0DAF8001033480AF1040B3C305B
:101370000160DBF8001041600BF104010968816035
:101380002E490C310968C16038784FF003084FF0DE
:10139000400950B1012808D0062806D0022804D000
:1013A00010E0FFE72520BDE8F88F84E82003C4E9BA
:1013B00003562148FFF7EEFD69460320FEF7F4FFD0
:1013C0000028F0D1387803280DD1BDF800000004C2
:1013D00084E80103C4E903561748FFF7DBFDFEF775
:1013E000A7FF0028DFD13878042820D0BDF80000FE
:1013F000B860000401C4092001C4C02084E8610071
:101400000D48FFF7C7FDFEF793FF0028CBD1DAF8B0
:10141000001009482C300160DBF8001041600749DA
:1014200008310968816005490C310968C1600020F4
:10143000B9E700001C0000205C000020142C0140D3
:101440002DE9F05F0027624876213E46017507606E
:1014500047608760C7603C463D46B946B84607616D
:10146000FFF766FD0320FFF7A9FD5A48016841F424
:1014700080710160DFF858A14FF4806B0AF1180AFF
:101480005348CAF80080CAF80480CAF80880CAE93C
:10149000038B1830FFF77EFDFEF709FF28B17F1C94
:1014A000FFB24A2FECD3BDE8F09F4FF4D570CAF8D5
:1014B000000008205746CAF804004020C7E9020887
:1014C0000001CAF8100042481830FFF763FDFEF72C
:1014D000A9FF20B9404901204FF080490870BA4661
:1014E000384641463722402780E88600C0F80C8005
:1014F00037483901C3461830CAF81010FFF74AFDC3
:101500003720FEF7E9FE4FF6FF78A0B35646DFF826
:10151000C490BA464FF4806B012709F11009C5B396
:101520004DE055463720C5E900B04FF48068CAF851
:1015300010802748C5E9027B5E461830FFF72AFD78
:101540003720FEF7C9FE0028ADD1244949EA010041
:1015500028602920C5E90107C5E903681C4818303F
:10156000FFF718FDFEF708FF00289CD1194910313C
:101570000E68F50F641C1DB94FF6FF718C42D0D375
:101580004FF6FF718C421CD216F0804F8BD0022296
:101590001AE012E0124886E881040020C6E9030B35
:1015A0000B481830FFF7F6FCFEF7E6FE0028CBD11B
:1015B000D9F80010CD0F641CB1E74445EAD3444587
:1015C00001D31B206FE7032203490A706BE7000079
:1015D00044000020042C01401C000020000010806A
:1015E0000080FF802DE9F0414FF48070FFF78CFC04
:1015F000354C364D4CF23A3610B3A878002101280C
:101600000ED0E9703048001F016841F4807101601C
:101610002068B043206001202871E878BDE8F0819F
:101620002B480C22C0E900124022C0E9022111011E
:101630000161FFF7AFFC0C20FEF74EFEE870E1E71A
:101640000220FFF761FC40B10220FFF735FC206863
:10165000B04320600220E870E0E70820FFF754FC68
:1016600040B10820FFF728FC2068B0432060042028
:10167000E870D3E72020FFF747FC40B12020FFF7B8
:101680001BFC2068B04320600620E870C6E71020ED
:10169000FFF73AFC40B11020FFF70EFC2068B04382
:1016A00020600520E870B9E74FF400773846FFF76F
:1016B0002BFC0028B2D03846FFF7FEFB2068B04371
:1016C00020600720E870A9E73C2C01401C000020A6
:1016D0005C000020094910B50860072048604020E0
:1016E00088600020C8604FF4806008610846FFF7FA
:1016F00051FCBDE810400720FEF7EEBD5C00002065
:101700000021012803D010B1262108467047014A64
:101710005070FAE71C00002070B50B4D712128466F
:1017200000F01DF8094C012801D0206806E0712165
:10173000284600F00DF82068401C2060B0F5806F4E
:1017400001D10020206070BD003800401000002052
:1017500001F00F0201219140C9430181704730B56A
:1017600001F00F030125024605FA03F40020A3B29D
:10177000090905FA01F49188A4B2128921401A429C
:1017800002D0002900D0012030BD00000CB500229D
:10179000274900920192086840F4803008604FF4B5
:1017A000A043086800F4003001900098401C0090AD
:1017B000019810B900989842F3D10868800334D595
:1017C000012001901A484030026842F080520260C5
:1017D0001848026842F44042026015480830026826
:1017E0000260026842F400420260026842F4A052C1
:1017F0000260031F104A1A600A6842F080720A6091
:101800000A689201FCD50D4940F205720A60016830
:1018100021F003010160016841F0020101600168EB
:10182000C1F381010229FAD10CBD01920CBD000067
:10183000003802400070004019544007003C02404C
:10184000124810B5016841F4700101601048016848
:1018500041F0010101600E4A002108321160026866
:101860000C4B1A400260031D0B4A1A60026822F4F6
:101870008022026006480C300160FFF787FF0349B1
:101880004FF000608039086010BD000088ED00E076
:1018900000380240FFFFF6FE10300024024A135CBD
:1018A0000B43135470470000F802002070B52E4D12
:1018B0000121284600F089F801284ED12B4C2178CF
:1018C000C82902D90020207040E00320B1FBF0F2CB
:1018D00000FB121018B902210020FFF7DFFF20786B
:1018E0000521B0FBF1F201FB120018B90421002020
:1018F000FFF7D4FF20780A21B0FBF1F201FB1200C0
:1019000018B908210020FFF7C9FF20781421B0FB87
:10191000F1F201FB120018B910210020FFF7BEFF01
:1019200020783221B0FBF1F201FB120018B920211E
:101930000020FFF7B3FF20786421B0FBF1F201FB38
:10194000120018B940210020FFF7A8FF0121002054
:10195000FFF7A4FF2078401C20702846BDE87040A7
:10196000012100F025B80000004001402C000020BB
:1019700010B5084C0121204600F027F8012803D1BA
:1019800005490A88521C0A802046BDE81040012102
:1019900000F00EB8001000401A0000200029018855
:1019A00002D041F0800101E021F080010180704708
:1019B000C943018270470029018802D041F001012A
:1019C00001E021F001010180704702460020128AE7
:1019D0000A4200D001207047002A828901D00A43C0
:1019E00000E08A438281704730B50288164C174D5B
:1019F000A0420DD0A8420BD0B0F1804F08D0144BBC
:101A0000984205D0134B984202D0134B984203D111
:101A100022F070034A881A43104B984206D0104BAC
:101A2000984203D022F440730A891A4302804A681C
:101A3000C2620A880285A04201D0A84201D1897AF7
:101A400001860121818230BD000001400004014077
:101A50000004004000080040000C0040001000405E
:101A6000001400402DE9F047DFF8908040F225593E
:101A70004946404600F0CEF878B3214C04200125B9
:101A80002070A0781F4E0027012801D068B11BE00C
:101A9000404600F04DF9A1887054491C4805400D9E
:101AA000A08011D1A77025700EE0404600F040F9EB
:101AB000A1887218491C82F800084805400DA080D2
:101AC00002D1A570032020700F4849460780A06806
:101AD000401CA060404600F086F840F2266529468A
:101AE0004446404600F096F8002805D02946204696
:101AF000BDE8F04700F077B8BDE8F087001001407E
:101B0000300000200D0300201A0000202DE9F043D2
:101B100087B01C4691460D00804601D104B10024D7
:101B200001211020FFF720F901210846FFF704F9F1
:101B30004FF4C060049002208DF8140001268DF847
:101B40001760214F8DF8150004A93846FFF702F8F9
:101B5000072209213846FFF739F807220A213846BB
:101B6000FFF734F8ADF80840ADF804500C20174DDD
:101B7000ADF80A000024CDF80080ADF80690ADF86D
:101B80000C406946284600F07DF825208DF81800A5
:101B90008DF819408DF81A408DF81B6006A8FFF7E4
:101BA00059F840F2FF31284600F01AF8012240F2BD
:101BB0002551284600F04DF80121284600F019F87B
:101BC00007B0BDE8F08300000000024000100140B3
:101BD00040F22771014800F006B8000000440040C0
:101BE000C943018070470A0A01219140C94301801D
:101BF00070470029818902D041F4005101E021F4AD
:101C00000051818170470246002012880A4200D0AC
:101C10000120704770B501F01F0501260024C1F3B3
:101C2000421306FA05F2012B0FD0022B0FD0838A44
:101C30004FEA11210088134206FA01F600EA060075
:101C400001D000B10124204670BD8389F0E7038AEA
:101C5000EEE710B5C1F3421301F01F040121A140CA
:101C6000012B07D0022B07D01430002A026805D0C0
:101C70000A4304E00C30F8E71030F6E78A430260CC
:101C800010BD00007FB50446008A0D46C98820F4C7
:101C9000405001432182A08941F20C618843A98808
:101CA0002A8911436A8902431143A181A08A20F441
:101CB0004071A8890843A0826846FFF76DF81A486A
:101CC000844202D01948844201D1039800E002986E
:101CD000A189090400EBC00101EB0010296801D5BE
:101CE000490000E08900B0FBF1F06422B0FBF2F1A2
:101CF00009010B096FF018056B4300EB8300A38902
:101D00001D044FF0320306D503EBC000B0FBF2F028
:101D100000F0070005E003EB0010B0FBF2F000F06C
:101D20000F00084320817FBD0010014000140140D6
:101D30008088C0F308007047C1F3080181807047B4
:101D4000F0B5ADF6040DFEF7C1FFFEF721FE2B4EF8
:101D500001200146B0702A48FFF72DFE4FF40067BE
:101D60006D46B068FEF722FD552843D03078012833
:101D70000ED003281ED00428F3D12248008814284E
:101D8000EFD9B28820496846FEF71CFA00242CE0FF
:101D90003A461D496846FEF715FA0024F068295DA9
:101DA000421CF260FEF7D8FD641CA4B2BC42F5D31D
:101DB000002010E03A4615496846FEF703FA002471
:101DC000F068295D421CF260FEF7C6FD641CA4B2F7
:101DD000BC42F5D302203070C3E7F068295D421C95
:101DE000F260FEF7B9FD641CA4B2B0888442F4D35B
:101DF000FEF7AAFD0DF6040DF0BD00003000002036
:101E0000001000401A0000200D0300200D0B0020E0
:101E1000FEE700000FB4054B10B503A9044A029871
:101E200000F018F810BC5DF814FB000075210008E4
:101E30004000002002E008C8121F08C1002AFAD1A1
:101E400070477047002001E001C1121F002AFBD13A
:101E5000704700002DE9FF4F8DB09B460F460446AA
:101E6000002606E025280BD05A460F999047641C9F
:101E7000761C20780028F5D111B03046BDE8F08FEF
:101E80000025A8460122984900E0054314F8013FC7
:101E9000203B02FA03F00842F7D120782E2817D110
:101EA00014F8010F45F004052A280ED06FF02F0218
:101EB0002078A0F1300109290AD808EB880102EB4B
:101EC000410100EB0108641CF2E757F8048B641C25
:101ED00020786C280DD004DC4C2812D06A2811D14F
:101EE00004E074280DD07A280CD10AE045F40015DE
:101EF00007E0617845F48015814202D1641C05F544
:101F00008015641C2078692844D008DC0028B3D0F0
:101F1000582867D063280FD0642808D13AE0702889
:101F200065D0732812D075285AD078285AD05A46CE
:101F30000F999047761CD5E017F8040B8DF8000038
:101F400000208DF80100E946012003E057F8049BCA
:101F50004FF0FF3069074FF0000501D40AE06D1C17
:101F600045450DDA8542FADB19F805100029F6D14E
:101F700006E06D1C8542FCDB19F805100029F8D13C
:101F80002E4404E019F8010B5A460F9990476D1E34
:101F9000F8D2A7E00A200021CDE90801C5F30250DC
:101FA00002280CD001CFC117021E71F100020CDA19
:101FB0000023D0EB030063EB01012D2208E0FF1D9D
:101FC00027F00707F7E80201EEE72A0504D52B22E0
:101FD0008DF8282001223CE0EA073AD02022F7E7DA
:101FE0000A2000E010200021CDE9080107E01020C0
:101FF000002145F00405CDE908014FF00808C5F3BC
:102000000250022810D001CF00214FF0000A2A0709
:1020100020D52278702A0DD0DDE908C38CF0100C91
:102020005CEA030C0CD015E0FF1D27F00707F7E86A
:102030000201EAE740228DF828204FF0010A0CE067
:1020400050EA010306D030238DF828308DF829207E
:10205000022292462278582A04D024A20DF12009A7
:102060000B9209E026A2F9E7DDE90823FEF7BCF8A8
:102070000B9B9B5C09F8013D50EA0102F4D1ADEBEA
:10208000090020300890680701D44FF00108089932
:10209000884503DD0898A8EB000000E0002080469A
:1020A000002506E00AA85A46405D0F9990476D1C2E
:1020B000761C5545F6DB04E030205A460F999047D0
:1020C000761CB8F10001A8F10108F5DC05E019F86B
:1020D000010B5A460F999047761C0899481E0890A4
:1020E0000029F4DC641CC4E60928010030313233D5
:1020F0003435363738396162636465660000000044
:10210000303132333435363738394142434445462D
:10211000000000002DE9F0410D4D002604462E6020
:102120000B4F0121243F3846FFF745FC00204FF4B8
:102130007A7205E02E6029689142FCD3401C80B27F
:10214000A042F7D33846BDE8F0410021FFF733BC89
:102150002444014010B550B1012802D0022804D116
:1021600005E0FFF753F8002800D0012010BD084615
:1021700010BD000070B5094D0446C1B22846FFF7F6
:10218000DBFD40212846FFF73EFD0028F9D0402125
:102190002846FFF725FD204670BD000000100140D5
:1021A0001CB501210220FEF7C7FD4FF4007000901E
:1021B00001208DF8040002218DF8051000218DF812
:1021C00006108DF8070069460148FEF7C3FC1CBDE8
:1021D000000402404FF4A060FEF76EFD00231A4693
:1021E00019464FF4E130FFF791FCFFF7D9FFFEF7F6
:1021F0000BFA19A0FFF70EFE4FF480711B48FEF793
:10220000F5FCD8B11AA0FFF705FEFFF799FDFEF720
:10221000F9FC1BA0FFF7FEFD1C4D4FF40074214696
:102220002846FEF7EAFC6420FFF774FF21462846A3
:10223000FEF7E5FC6420FFF76DFFF0E714A0FFF761
:10224000E9FDFEF7C7FB0028DFD015A0FFF7E2FD90
:10225000FEF7D8FCD9E70000426F6F744C6F6164E1
:1022600065722056312E300D0A0000000000024039
:10227000CEB4BCECB2E2B5BD5344BFA80D0A000019
:10228000C9FDBCB6CAA7B0DC0D0A000000040240BC
:10229000BCECB2E2B5BD5344BFA80D0A000000007B
:1022A000CEC4BCFECFB5CDB3B3F5CABCBBAFCAA7D5
:1022B000B0DC0D0A00000000D82200080000002059
:1022C00044000000341E00081C23000844000020C5
:1022D000CC320000441E000800000000010203048C
:1022E0000102030406070809000000000000191994
:1022F000282800000001000000000000000000008D
:1023000000000000000000000000000000000000CD
:0C23100000000000004000080000000079
:040000050800018965
:00000001FF
