:020000040800F2
:1000000068AD00205D020008CB07000889070008E2
:10001000C907000843030008FD15000800000000A0
:100020000000000000000000000000009D0100082A
:100030004105000800000000F90100086D0F0008EC
:1000400077020008770200087702000877020008AC
:100050007702000877020008890500087702000887
:10006000C10500083D060008770200087702000875
:10007000770200087702000877020008CD03000825
:10008000770200087702000877020008770200086C
:10009000770200087702000877020008770200085C
:1000A0002D10000877020008770200087702000888
:1000B000770200087702000877020008770200083C
:1000C000770200087702000877020008770200082C
:1000D000E10D0008651300089D1400087702000870
:1000E000770200087702000877020008770200080C
:1000F000770200083D110008770200087702000827
:1001000077020008C50C0008770200087702000893
:100110007702000877020008F11000087702000853
:1001200077020008770200087702000877020008CB
:1001300077020008770200087702000877020008BB
:1001400077020008770200087702000877020008AB
:100150002904000855040008770200087702000807
:10016000770200087702000877020008770200088B
:10017000770200087702000877020008770200087B
:100180007702000877020008DFF80CD000F09CF836
:10019000004800477D16000868AD00202C4B196808
:1001A0000868B0E8F04F80F30988BFF36F8F4FF015
:1001B000000080F3118870470000000008480068C4
:1001C000006880F308884FF0000080F3148862B65E
:1001D00061B6BFF34F8FBFF36F8F00DF00BF00BF6B
:1001E00008ED00E0DFF80C00016841F470010160E7
:1001F000704700BF88ED00E0EFF30980BFF36F8F19
:10020000134B1A681EF0100F08BF20ED108A20E96A
:10021000F04F106009B44FF0500080F31188BFF325
:100220004F8FBFF36F8F02F001F84FF0000080F3A3
:10023000118809BC19680868B0E8F04F1EF0100F6B
:1002400008BFB0EC108A80F30988BFF36F8F704746
:1002500050060020EFF305807047000006488047F5
:1002600006480047FEE7FEE7FEE7FEE7FEE7FEE79B
:10027000FEE7FEE7FEE7FEE7990F000889010008A8
:1002800040EA01039B0703D009E008C9121F08C018
:10029000042AFAD203E011F8013B00F8013B521E98
:1002A000F9D27047D2B201E000F8012B491EFBD20F
:1002B00070470022F6E710B513460A460446194671
:1002C000FFF7F0FF204610BD064C074D06E0E06842
:1002D00040F0010394E8070098471034AC42F6D38D
:1002E000FFF756FFE82B0008082C000870B58C18A3
:1002F00010F8015B15F0070301D110F8013B2A113A
:1003000006D110F8012B03E010F8016B01F8016B26
:100310005B1EF9D12B0705D40023521E0DD401F822
:10032000013BFAE710F8013BCB1A921C03E013F8EB
:10033000015B01F8015B521EF9D5A142D8D3002020
:1003400070BDFEE710B504461348016811F0450F73
:10035000FBD0042000F0ACFC20B1042000F0A2FC93
:10036000032010BD012000F0A3FC20B1012000F00B
:1003700099FC012010BD084824380068A04201D033
:10038000102010BD40F2FF5000F08CFC02482038D5
:10039000006800F0080010BD342C014010B50A4C74
:1003A0000849204600F06AF80021204600F092F843
:1003B0008021204600F0C2F82046BDE8104001210F
:1003C00000F088B8200000207060024070B5084C32
:1003D000084D2146284600F087F8002807D021461E
:1003E000284600F061F8BDE8704000F005B870BD27
:1003F000208000207060024010B50A4C0849204659
:1004000000F03CF80021204600F064F880212046EE
:1004100000F094F82046BDE81040012100F05AB8E1
:10042000000800208864024070B5084C084D214641
:10043000284600F059F8002807D02146284600F049
:1004400033F8BDE87040FFF7A9BF70BD00880020F9
:100450008864024070B5074C074D2146284600F0DD
:1004600043F8002805D021462846BDE8704000F03A
:100470001BB870BD00802020A0640240074A904253
:1004800001D2074801E005481038064A8B0001EA0E
:10049000020101D5C160704781607047106402405D
:1004A000006002407D0F7D0F074A904201D207484D
:1004B00001E005481038064A8B0001EA020101D527
:1004C000C160704781607047106402400060024064
:1004D0007D0F7D0F0029016802D041F0010101E08C
:1004E00021F001010160704730B5104A00249042AC
:1004F00001D20F4A01E00D4A103A0E4B194205D0C5
:100500001E2303EAD12503682B4002E0406900F076
:100510008003880001D5506800E01068064A10404A
:10052000084201D003B10124204630BD10640240CE
:10053000006002403C0F3C0F7D0F7D0F4160704713
:10054000704700003EB50121480400F055FB002033
:10055000ADF80800ADF8020042F210700190A7203B
:10056000074CADF800006946204600F06BFE002104
:10057000044800F02BFE0021204600F037FE3EBD6F
:10058000004401400040014010B5012000F0A2F8F5
:1005900001280CD14102084800F0F4F80749087816
:1005A000401CC0B20870042801D900200870BDE8C2
:1005B0001040012000F088B80004024032060020FC
:1005C00010B5042000F086F801282ED14102194808
:1005D00000F0D6F8184900220878012806D0022831
:1005E0000CD0032812D004281FD117E08878401CB3
:1005F000C0B28870632818D18A7016E0C878401C91
:10060000C0B2C870632810D1CA700EE00879401CCF
:10061000C0B20871632808D10A7106E04879401C0D
:10062000C0B24871632800D14A71BDE8104004206F
:1006300000F04AB8000402403206002010B508203D
:1006400000F048F8012835D141021D4800F098F823
:100650001C486322017806292CD2DFE801F02B0325
:100660000B131B238178491E11F0FF01817021D1EA
:1006700082701FE0C178491E11F0FF01C17019D1CD
:10068000C27017E00179491E11F0FF01017111D10B
:1006900002710FE04179491E11F0FF01417109D14A
:1006A000427107E04178491E11F0FF01417001D10C
:1006B0001E214170BDE81040082000F005B8000080
:1006C0000004024032060020014908607047000023
:1006D000143C0140034A0146002012680A4200D03F
:1006E00001207047143C0140F0B5002201274FF073
:1006F000030C0B6807FA02F52B40AB422CD10668BD
:1007000053000CFA03F4A64306600E79D0F800E01B
:100710009E4046EA0E0606600E79012E01D0022E9A
:1007200012D18668A64386604E79D0F808E09E40D4
:1007300046EA0E0686604668AE43466045688E7996
:100740009640B6B235434560C568A543C560CC79CF
:100750009C40C3681C43C460521C102AC9D3F0BD1E
:100760004B07DB0E9A40C90810B500EB8100016A07
:100770000F249C40A1430162016A1143016210BD34
:100780004183704701837047FEE700000C4E0D4C1B
:100790004FF400754FF4FA77607829460028304608
:1007A00002D0FFF7EFFF01E0FFF7EAFF142001F0AE
:1007B00095FC6078C0436070384601F08FFCEBE731
:1007C0000004024000000020FEE7704730B50F2310
:1007D000C27801780125FAB1144A126801F1E021CA
:1007E00002F4E062C2F5E062C2F30722C2F104043F
:1007F000D3404278A24084781C401443220181F8FF
:100800000024007800F01F018D404009800000F1B5
:10081000E020C0F8005130BD01F01F0085404809BC
:10082000800000F1E020C0F8805130BD0CED00E008
:100830000249084302490860704700000000FA05B9
:100840000CED00E010B502464FF480610348FFF75D
:1008500029FDBDE8104000F089B90000A00C00207F
:1008600070B500F06DF8354D4FF4804421462846B0
:10087000FFF786FF052000F0D1FE21462846FFF74E
:1008800081FF052000F0CAFEA82000F0D5F83F2027
:1008900000F0D2F8D32000F0CFF8002000F0CCF820
:1008A000402000F0C9F8D52000F0C6F8F12000F093
:1008B000C3F8A02000F0C0F8C02000F0BDF8DA2096
:1008C00000F0BAF8122000F0B7F8812000F0B4F878
:1008D000FF2000F0B1F8D92000F0AEF8F12000F0D0
:1008E000ABF8DB2000F0A8F8302000F0A5F8A42039
:1008F00000F0A2F8A62000F09FF8202000F09CF85D
:10090000002000F099F8C02000F096F8A12000F037
:1009100093F8232000F090F8002000F08DF88D204F
:1009200000F08AF8142000F087F8AF2000F084F877
:10093000BDE870400020FFF785BF000000040240C2
:100940002DE9F041012188B0880300F049F9012127
:10095000022000F039F902268DF8046003274FF4D5
:1009600020408DF805700024DFF88C8000908DF811
:10097000064001258DF8075069464046FFF7B4FE52
:100980008DF804504FF4A0408DF8057000908DF85C
:1009900006408DF8075069464046FFF7A5FE052240
:1009A0000D214046FFF7DCFE05220F214046FFF7F0
:1009B000D7FEADF808404FF48270ADF80A00ADF8EC
:1009C00010506802ADF812001020ADF81400ADF818
:1009D0000C40ADF816400720084CADF81800ADF8F3
:1009E0000E6002A9204600F04AFA0121204600F0DC
:1009F00013FA08B0BDE8F08100040240003800405E
:100A000070B505464FF480510948FFF7BBFE094C0D
:100A10000221204600F014FA0028F9D02946204689
:100A200000F02BFA2046BDE87040022100F0FEB92C
:100A3000000402400038004070B505464FF4805174
:100A40000948FFF79DFE094C0221204600F0F8F905
:100A50000028F9D02946204600F00FFA2046BDE8CC
:100A60007040022100F0E2B900040240003800406A
:100A7000F0B500230C4F4E42C3F1070404EB4604CB
:100A8000002107EBC41401EBC30501EB000C491C6A
:100A9000555DC9B204F80C500829F4D35B1CDBB2D5
:100AA000022BE9D3F0BD0000A00C00202DE9F0439B
:100AB000002490B01F460D460646402B33D86946A9
:100AC000002F30D05E234FF05F0CBC4210D2105D7F
:100AD000804621385D2801D8085504E0B8F1200F80
:100AE00004D001F804C0641CE4B2EEE70B55FAE749
:100AF00000248846DFF8349013E0782E05D96D1C69
:100B00000026EDB2032D00D9002518F80410304658
:100B100009EB01122946FFF7ABFF0836641CF6B259
:100B2000E4B2BC42E9D310B0BDE8F083320000204B
:100B300008B50D4C00254FF4FA762078322800D302
:100B400025702078012321308DF800006A4619466F
:100B50000020FFF7ABFF2078401C207000F006F863
:100B6000304601F0BBFAE8E7000000202DE9F04133
:100B70002120FFF761FF0020FFF75EFF7F20FFF7D6
:100B80005BFF052000F04AFD2220FFF755FF002003
:100B9000FFF752FF0720FFF74FFF052000F03EFD53
:100BA000084F0025002407EBC516305DFFF728FF2E
:100BB000641CE4B2802CF8D36D1CEDB2082DF1D387
:100BC000BDE8F081A00C0020044A0029116801D082
:100BD000014300E08143116070470000303802405B
:100BE000044A0029116801D0014300E081431160EB
:100BF0007047000040380240044A0029116801D0C3
:100C0000014300E081431160704700004438024016
:100C100070B5204B1968204C11F00C0104D01F4E08
:100C2000042903D0082903D004601BE0066019E002
:100C3000184A121F1168C1F38055116801F03F0175
:100C400015B1B6FBF1F101E0B4FBF1F114681268E3
:100C5000C4F388146143C2F30142521C5200B1FB39
:100C6000F2F1016019680F2202EA11110C4A545C7A
:100C70000168E14041601C68072505EA9424145D81
:100C800021FA04F484601B6805EA5333D25CD14036
:100C9000C16070BD083802400024F40040787D0136
:100CA000180000200149086070470000382C0140FE
:100CB000034A0146002012680A4200D00120704712
:100CC000342C014000F014B810B5084A01681160D6
:100CD000131D1968D0E901242243D0E903400443DD
:100CE0006FF30A0122430A431A6010BD082C014029
:100CF0002DE9F0414FF48070FFF7DAFF354C364DA7
:100D00004CF23A3610B3A878002101280ED0E970D1
:100D10003048001F016841F4807101602068B043D1
:100D2000206001202871E878BDE8F0812B480C2272
:100D3000C0E900124022C0E9022111010161FFF760
:100D4000C3FF0C20FFF7FEFAE870E1E70220FFF78F
:100D5000AFFF40B10220FFF7A5FF2068B04320603D
:100D60000220E870E0E70820FFF7A2FF40B108206A
:100D7000FFF798FF2068B04320600420E870D3E7B5
:100D80002020FFF795FF40B12020FFF78BFF206860
:100D9000B04320600620E870C6E71020FFF788FF08
:100DA00040B11020FFF77EFF2068B043206005208F
:100DB000E870B9E74FF400773846FFF779FF00286D
:100DC000B2D03846FFF76EFF2068B043206007209E
:100DD000E870A9E73C2C01403C060020B810002038
:100DE00070B50B4D7121284600F031F8094C0128EF
:100DF00001D0206806E07121284600F01AF820682A
:100E0000401C2060B0F5806F01D10020206070BDD3
:100E100000380040280000200029018802D041F05D
:100E2000400101E021F0400101807047C943018188
:100E3000704701F00F0201219140C94301817047C1
:100E40000246002012890A4200D00120704730B5C6
:100E500001F00F030125024605FA03F40020A3B2B6
:100E6000090905FA01F49188A4B2128921401A42B5
:100E700002D0002900D0012030BD8181704730B5FB
:100E800002884C8802F441530A88CD8822438C881A
:100E90002C4322430C8922434C8922438C892243D0
:100EA000CC8922431A430280828B22F4006282831F
:100EB000098A018230BD00000CB50022274900924A
:100EC0000192086840F4803008604FF4A04308683D
:100ED00000F4003001900098401C0090019810B977
:100EE00000989842F3D10868800334D5012001901E
:100EF0001A484030026842F0805202601848026886
:100F000042F44042026015480830026802600268FC
:100F100042F400420260026842F4A0520260031FE1
:100F2000104A1A600A6842F080720A600A689201E8
:100F3000FCD50D4940F205720A60016821F00301F9
:100F40000160016841F0020101600168C1F38101A3
:100F50000229FAD10CBD01920CBD000000380240FC
:100F60000070004019544007003C024010B550206A
:100F700080F31188BFF34F8FBFF36F8F01F092FCA6
:100F800018B104494FF080500860002080F31188A8
:100F900010BD000004ED00E0124810B5016841F4F6
:100FA000700101601048016841F0010101600E4AC2
:100FB00000210832116002680C4B1A400260031DC8
:100FC0000B4A1A60026822F48022026006480C3044
:100FD0000160FFF771FF03494FF00060803908603E
:100FE00010BD000088ED00E000380240FFFFF6FE73
:100FF00010300024044AFF29105C02D0814301D044
:10100000002070470120704754130020024A135CEF
:101010008B4313547047000054130020024A135CA2
:101020000B431354704700005413002070B52E4D2D
:101030000121284600F0E4F801284ED12B4C2178FC
:10104000C82902D90020207040E00320B1FBF0F253
:1010500000FB121018B902210020FFF7DFFF2078F3
:101060000521B0FBF1F201FB120018B904210020A8
:10107000FFF7D4FF20780A21B0FBF1F201FB120048
:1010800018B908210020FFF7C9FF20781421B0FB10
:10109000F1F201FB120018B910210020FFF7BEFF8A
:1010A00020783221B0FBF1F201FB120018B92021A7
:1010B0000020FFF7B3FF20786421B0FBF1F201FBC1
:1010C000120018B940210020FFF7A8FF01210020DD
:1010D000FFF7A4FF2078401C20702846BDE8704030
:1010E000012100F07DB80000004001404C060020C6
:1010F00070B5104C0121204600F082F8012813D170
:10110000616A20464FF47A72B1FBF2F30A4A118801
:10111000491C118001EBC10505EB011103EB4101F5
:101120005180002100F062F82046BDE870400121A6
:1011300000F056B8001000403806002070B50821B5
:101140000620FFF757FF00251E4C01281CD0012167
:10115000204600F05CF8012816D002210620FFF797
:1011600049FF01284FF0020120460FD000F04FF850
:1011700010B30221204600F05EF86562012120468E
:1011800000F034F8022114E0656215E000F03FF849
:1011900090B10021204600F04EF8616A0A4A2046CC
:1011A0001180002100F022F802210620FFF72EFF17
:1011B00008210620FFF732FF2046BDE870400321DA
:1011C00000F011B8002000404E06002000290188E0
:1011D00002D041F0800101E021F0800101807047E0
:1011E000C94301827047C9430182704700290188C1
:1011F00002D041F0010101E021F0010101807047BE
:1012000002460020128A0A4200D00120704702469E
:101210000020138A92890B4202EA010202D0002ABE
:1012200000D001207047002A828901D00A4300E0E3
:101230008A4382817047028C22F002020A430284B0
:101240007047000030B50288164C174DA0420DD0F3
:10125000A8420BD0B0F1804F08D0144B984205D073
:10126000134B984202D0134B984203D122F07003E3
:101270004A881A43104B984206D0104B984203D02C
:1012800022F440730A891A4302804A68C2620A88BB
:101290000285A04201D0A84201D1897A01860121AC
:1012A000818230BD00000140000401400004004084
:1012B00000080040000C00400010004000140040F6
:1012C0001FB501210804FFF797FC0020ADF80800C6
:1012D000ADF8020042F210700190A720114CADF859
:1012E000000069462046FFF7ADFF18218DF80C106D
:1012F00002218DF80D1003218DF80E1001208DF8BC
:101300000F0003A8FFF762FA01212046FFF75EFFF6
:10131000012211462046FFF786FF01212046FFF7F4
:1013200065FF1FBD004001407CB5002505242B460C
:101330001E2207A10848CDE9004501F073FA0023F9
:101340000A2206A10648CDE9004501F06BFA7CBDF2
:101350004F4C454400000000310B00084C45440050
:101360008D0700082DE9F041DFF8608040F225513B
:10137000404600F0AEF8164F164C40F2DC55002601
:1013800050B12088A84200D32680404600F02EF9B4
:1013900021887854491C218040F22661404600F0A3
:1013A00098F858B16088A84200D366806088395C9C
:1013B000404600F01FF96088401C60804046BDE850
:1013C000F04140F2277100F074B8000000100140B5
:1013D000C40600202C0000202DE9F04387B01C46F5
:1013E00091460E00804601D104B100240121102055
:1013F000FFF702FC01210846FFF7E6FB4FF4C0604F
:10140000049002208DF8140001258DF81750214F0B
:101410008DF8150004A93846FFF766F9072209215F
:101420003846FFF79DF907220A213846FFF798F959
:10143000ADF808400C20ADF80A000020164CADF8BD
:101440000460ADF80C00CDF80080ADF80690694658
:10145000204600F075F825208DF818008DF81950F9
:101460008DF81A508DF81B5006A8FFF7AFF940F21F
:10147000FF31204600F01AF8012240F26551204663
:1014800000F046F80121204600F019F807B0BDE849
:10149000F0830000000002400010014040F227717C
:1014A000014800F006B8000000440040C943018034
:1014B00070470A0A01219140C94301807047002901
:1014C000818902D041F4005101E021F40051818171
:1014D000704770B501F01F0501260024C1F34213C7
:1014E00006FA05F2012B0FD0022B0FD0838A4FEAA8
:1014F00011210088134206FA01F600EA060001D025
:1015000000B10124204670BD8389F0E7038AEEE72D
:1015100010B5C1F3421301F01F040121A140012BBA
:1015200007D0022B07D01430002A026805D00A43E6
:1015300004E00C30F8E71030F6E78A43026010BD93
:101540007FB50446008A0D46C98820F44050014307
:101550002182A08941F20C618843A9882A8911431C
:101560006A8902431143A181A08A20F44071A889AD
:101570000843A0826846FFF74BFB1A48844202D01A
:101580001948844201D1039800E00298A189090416
:1015900000EBC00101EB0010296801D5490000E013
:1015A0008900B0FBF1F06422B0FBF2F109010B09F4
:1015B0006FF018056B4300EB8300A3891D044FF007
:1015C000320306D503EBC000B0FBF2F000F00700D9
:1015D00005E003EB0010B0FBF2F000F00F00084351
:1015E00020817FBD00100140001401408088C0F3BD
:1015F00008007047C1F3080181807047FEE702E0F0
:1016000008C8121F08C1002AFAD17047704700208D
:1016100001E001C1121F002AFBD1704770B5094CCF
:10162000054600202060074E0121243E3046FFF78A
:10163000DDFD2068A842FCD33046BDE870400021A3
:10164000FFF7D4BD244401401CB501210220FFF75F
:10165000BBFA4FF40070009001208DF804000221C5
:101660008DF8051000218DF806108DF807006946E9
:101670000148FFF739F81CBD0004024010B54FF4D3
:10168000A060FFF7D5F800231A4619464FF4E13061
:10169000FFF7A2FEFEF756FFFFF7D6FFFFF7E0F8D1
:1016A000FFF70EFEFFF740FE00F080FD002010BDAA
:1016B0002DE9F041184E0F460446F5683068001DCC
:1016C00000F0F4FB38B9306890F82C100120884005
:1016D000316981433161601C07D137B13168BDE8A0
:1016E000F0410E48091D00F01ABC30682C44AC4291
:1016F0004460316805D2B06BBDE8F041091D00F0CF
:10170000F6BB706B091D00F0F2FBB06A844200D298
:10171000B462BDE8F08100005006002028150020CA
:101720002DE9F041054600F007FC2D4EB068401C45
:10173000B06030682B4F10B1706930B32BE035606A
:10174000B068012827D1002404EB840007EB800057
:1017500000F0BFFB641C0F2CF6D3234800F0B9FB4C
:101760002148143000F0B5FB1F48283000F0B1FBD1
:101770001D483C3000F0ADFB1B48503000F0A9FB89
:10178000194870631430B06305E03068E96AC06AD4
:10179000884200D83560706A0121401C706228645C
:1017A000E86A326981401143316100EB800007EB48
:1017B0008000291D00F0B3FB00F0DEFB70690028FB
:1017C0000CD03068E96AC06A884207D207494FF0F6
:1017D00080500860BFF34F8FBFF36F8FBDE8F0817B
:1017E00050060020AC130020D814002004ED00E0C7
:1017F00010B500F0A1FB0E4C2068A0B90D4800F018
:1018000068FB0C48143000F064FB0A48E0601430B8
:10181000206100220C210A2000F0B0FD206010B1F0
:1018200005A100F027FCBDE8104000F0A5BB0000BA
:101830008C0600203C150020546D72510000000001
:1018400030B4026C0B46002A0BD0C1681144C16051
:101850004468A14201D30168C16030BC1846FEF75C
:101860000FBD30BC70472DE9F041856B174604462B
:101870000026026C82B1C7B1E068FEF701FDE168A5
:10188000206C091AE1602268914202D26168081A4C
:10189000E060022F16D017E02068A8B9606801F058
:1018A00065F80646002060600EE0A068FEF7E8FCE0
:1018B000216CA0680844A0606168884204D3206855
:1018C000A06001E005B16D1E6D1CA5633046BDE84A
:1018D000F08110B50446006B00F062FB2046BDE8C5
:1018E000104000F05DBB000010484FF4F04142078B
:1018F00006D0C01D0D4920F00700411AC1F5F04186
:101900000B4A00230144C2E900030839103A21F0D0
:10191000070111604B600B600B1AC0E90013936064
:101920004FF000405360D060704700006415002005
:10193000B0060020134E144DA6F5B4774FF0805832
:10194000DFF8489011E000F0F7FAF068C468201D55
:1019500000F0ACFAA868401EA8606868401E686085
:1019600000F00AFB2046FFF7B4FF68680028EAD1C0
:1019700038680128F9D9C9F80080BFF34F8FBFF349
:101980006F8FF2E7141500205006002004ED00E0F0
:101990002DE9F0470E46DDE909841746824691009D
:1019A0009946089DA522206BFEF77CFC6FF0030191
:1019B000206B01EB8701084420F00707780707D068
:1019C000502080F31188BFF34F8FBFF36F8FFEE776
:1019D0002218315C82F83410315C11B1401C0A28A5
:1019E000F6D3002684F83D600F2D00D30E25E56266
:1019F000C4E91256201D00F077FA04F1180000F037
:101A000073FA2461C5F10F006462A061266584F851
:101A100054604A465146384600F032FA2060B8F128
:101A2000000F01D0C8F80040BDE8F08730B511497B
:101A300000E011460A688242FBD34B685C1884427E
:101A400003D1406818444860084643681C18944213
:101A500009D1084C103C2468A24209D052681A44AB
:101A600042600A6812680260814200D0086030BD9E
:101A70000460F9E7B006002070B5002441600B4D0A
:101A80000061914206D8D11A8269914206D2011DA5
:101A9000286907E09A4203D2994201D3012403E066
:101AA000011DE86800F023FA204670BD8C06002076
:101AB00010B5044600F040FAA06B20B1002400F0FD
:101AC0005BFA204610BD0124F9E7000030B585B06F
:101AD0002B4D4BE00198002848DB039C606910B156
:101AE000201D00F0E3F904A800F0B6F802460198C2
:101AF0000A283BD2DFE800F00505053A2637050540
:101B00003A260298A169034601442046FFF7B4FF34
:101B100000B3616A20468847E069012826D1002089
:101B200000900298A169002342181946204601F04E
:101B30002DF878B9502080F31188BFF34F8FBFF391
:101B40006F8FFEE70298A06128B1811813462046E6
:101B5000FFF792FF0AE0502080F31188BFF34F8F08
:101B6000BFF36F8FFEE7204600F01AFA002201A9AA
:101B7000286800F081FD0028ACD105B030BD000020
:101B80008C0600202DE9FC410E46054600F046FB80
:101B900001A800F061F80446019818B100F06EFF4A
:101BA000BDE8FC81224FAEB138690068A8B30026B9
:101BB000291B3246386800F06FFA00F05FFF0028FA
:101BC000EED11C494FF080500860BFF34F8FBFF338
:101BD0006F8FE5E7A542EBD800F050FFF868264686
:101BE000C068C468201D00F061F9E069012810D1C7
:101BF000A0692B46411932462046FFF73DFF40B110
:101C000000200346014600902A46204600F0BEFF11
:101C100020B1616A20468847C2E707E0502080F380
:101C20001188BFF34F8FBFF36F8FFEE70126BFE729
:101C30008C06002004ED00E00648416B096829B1DC
:101C4000416BC968C9684968816270474FF0FF31CC
:101C5000FAE700005006002070B5054600F01CFEB3
:101C6000064E0446B068844203D200F009F8012011
:101C700000E0002028602046B46070BD8C06002083
:101C8000F8B5194E1FE0C068C4680568201D00F053
:101C90000DF9616A20468847E069012813D1A069DF
:101CA0002844A84206D924616060211DF06800F034
:101CB0001EF908E000200346014600902A4620460F
:101CC00000F064FF38B1F06801680029DBD13169A8
:101CD000C6E90310F8BD502080F31188BFF34F8F81
:101CE000BFF36F8FFEE700008C06002008484068B5
:101CF000401C4FF0500080F3118804D0BFF34F8F89
:101D0000BFF36F8FFEE7BFF34F8FBFF36F8FFEE719
:101D1000B8060020084CE068016839B1002139B1EB
:101D20000020FFF72FFFFFF7D1FEF4E70121F6E7D0
:101D3000C0680068F5E700008C0600202DE9F0413E
:101D4000044600F0F9F894F9455004F1240609E03E
:101D5000606A48B1304600F055FE08B100F0ECF979
:101D60006D1E6DB2002DF3DC4FF0FF3684F8456038
:101D700000F002F900F0E0F894F9445004F1100783
:101D800009E0206948B1384600F03CFE08B100F097
:101D9000D3F96D1E6DB2002DF3DC84F84460BDE80C
:101DA000F04100F0E9B800002DE9F04105460026B9
:101DB00000F034FA314F386808B9FFF795FDF8683C
:101DC00005424BD1C5B3083568070ED005F00700B2
:101DD000C0F108000544680707D0502080F311883F
:101DE000BFF34F8FBFF36F8FFEE72DB37868854247
:101DF00034D8224910310846046801E021460446DF
:101E00006068A84202D220680028F7D1386884426E
:101E100024D00E682068086060680836411B1029CD
:101E20000FD96019420708D0502080F31188BFF302
:101E30004F8FBFF36F8FFEE710E041606560FFF7E3
:101E4000F5FD61687868401A7860BA68904200D2FF
:101E5000B860F86801430020C4E9000100F00EFEFC
:101E6000700707D0502080F31188BFF34F8FBFF366
:101E70006F8FFEE73046BDE8F0810000A00600202D
:101E800010B5031F4FF080741C601B1F21F001016F
:101E90001960191F044B0B6014390A60091F6FF099
:101EA000020244380A6010BDED1C0008D0E901327E
:101EB00001699A60D0E901235A604A68824201D1DF
:101EC00082684A60002202610868401E0860086853
:101ED000704700F108014FF0FF32C0E90112C16004
:101EE000016100210160704700210161704730B538
:101EF0000C68621C02D000F1080202E0026904E0F2
:101F00001A4653681D68A542FAD953684B60996018
:101F10008A60516008610168491C016030BD4268F7
:101F20004A6093688B6093685960916008610168AA
:101F3000491C016070470000502080F31188BFF3F6
:101F40004F8FBFF36F8F0A494868401C48600128D3
:101F50000CD10848006810F0FF0F07D0502080F324
:101F60001188BFF34F8FBFF36F8FFEE770470000FC
:101F7000B806002004ED00E00849486828B1401E7A
:101F8000486001D180F311887047502080F3118898
:101F9000BFF34F8FBFF36F8FFEE70000B80600203E
:101FA00070B5002827D0144DA0F108046068E968D6
:101FB000084207D1502080F31188BFF34F8FBFF341
:101FC0006F8FFEE722683AB1502080F31188BFF38B
:101FD0004F8FBFF36F8FFEE78843606000F01EF9FC
:101FE00060686968084468602046FFF71FFDBDE827
:101FF000704000F043BD70BDA00600204FF0E0200F
:1020000000210161816105494FF47A720968B1FBD1
:10201000F2F1491E4161072101617047040000206F
:1020200010B5FEF717F9114910280ED300F1E02082
:1020300090F8F0030A78904207D2502080F311887C
:10204000BFF34F8FBFF36F8FFEE7094800688968C1
:1020500000F4E060884207D9502080F31188BFF374
:102060004F8FBFF36F8FFEE710BD0000B806002052
:102070000CED00E010B5074B002253F832401CB1C4
:10208000521C082AF9D310BD43F8321003EBC201E9
:10209000486010BD6C13002070B515460E4604460E
:1020A000FFF74AFF94F944100020491C01D184F83D
:1020B000440094F94510491C01D184F84500FFF70C
:1020C0005BFFA06B28B92A46314604F1240000F0DA
:1020D00051F82046BDE87040FFF730BE10B5020051
:1020E00014D00F48006B38B1502080F31188BFF333
:1020F0004F8FBFF36F8FFEE700F090F8002110467E
:10210000FFF7D6FA00F0BAFC002807D105494FF0D6
:1021100080500860BFF34F8FBFF36F8F10BD00007A
:102120005006002004ED00E002490A6A0260C96816
:10213000416070475006002001490120C861704786
:102140005006002010B50C4650B1094909681831F5
:10215000FFF7CDFE2046BDE810400121FFF7A8BAE9
:10216000502080F31188BFF34F8FBFF36F8FFEE7CE
:102170005006002070B514460D4668B10A4909683A
:102180001831FFF7CCFE0CB14FF0FF352146284641
:10219000BDE87040FFF78CBA502080F31188BFF380
:1021A0004F8FBFF36F8FFEE7500600201CB5174816
:1021B0000024CDE900402346822215A1164800F0F4
:1021C00031FB012803D100F0BBFC012809D0401CE1
:1021D0001AD1502080F31188BFF34F8FBFF36F8F58
:1021E000FEE7502080F31188BFF34F8FBFF36F8F4E
:1021F00006484FF0FF312C38816201214161C460F3
:10220000BDE81C4000F040B81CBD00007C0600206A
:1022100049444C4500000000351900080248016B94
:10222000491C01637047000050060020144A106BDF
:1022300010B10120D06170470020D06110691149B0
:10224000B0FA80F0C0F11F0000EB800051F82030A0
:102250006BB101EB800000F10803416849684160FF
:10226000994201D149684160C868106070475020A8
:1022700080F31188BFF34F8FBFF36F8FFEE700002D
:1022800050060020AC1300201CB537480168374ABF
:10229000914207D1502080F31188BFF34F8FBFF3D5
:1022A0006F8FFEE700683149491E884207D15020F0
:1022B00080F31188BFF34F8FBFF36F8FFEE72C4978
:1022C00008780190FF20087008788DF800009DF8CC
:1022D00000009DF8002000F0F000904207D0502050
:1022E00080F31188BFF34F8FBFF36F8FFEE79DF828
:1022F0000000204B00F0500018700720986006E0A6
:10230000401E98609DF8000040008DF800009DF888
:10231000000000069868F3D4032807D0502080F30B
:102320001188BFF34F8FBFF36F8FFEE74FF44070FC
:102330009860019808700C482030016841F47001E1
:102340000160016841F070410160FFF757FE002015
:102350005860FDF747FF0848016841F040410160BF
:10236000FDF72CFF00201CBD00ED00E071C20F4105
:1023700000E400E0B806002034EF00E02DE9F04171
:1023800017460E46050016D0EEB105FB06F050309C
:10239000FFF70AFD04000CD004F15000AEB120603C
:1023A000C4E90F562046012100F012F8204684F8B7
:1023B0004C70BDE8F081502080F31188BFF34F8F3F
:1023C000BFF36F8FFEE70020E1E72460E8E700003D
:1023D00070B50D46040025D0FFF7AEFDD4E90F20FF
:1023E000216802FB001161600021A1632168A160E6
:1023F0000A46D4E90F01401E00FB0121E16021469D
:102400004FF0FF3001F8440F487004F110008DB117
:10241000FFF75FFD04F12400FFF75BFDFFF7ACFD64
:10242000012070BD502080F31188BFF34F8FBFF3A0
:102430006F8FFEE721690029F0D000F0E3FA002851
:10244000ECD004494FF080500860BFF34F8FBFF3CA
:102450006F8FE3E704ED00E02DE9FF4F83B01F46E7
:102460008B4604004FF0000603D0BBF1000F08D0EC
:1024700011E0502080F31188BFF34F8FBFF36F8FAF
:10248000FEE7206C38B1502080F31188BFF34F8FE6
:10249000BFF36F8FFEE7022F0AD1E06B012807D050
:1024A000502080F31188BFF34F8FBFF36F8FFEE78B
:1024B00000F0E4F9DFF800914FF0000A4FF0805887
:1024C00048B9059838B1502080F31188BFF34F8F79
:1024D000BFF36F8FFEE7FFF72FFDA06BE16B884224
:1024E00005D3022F03D00598C8B1DEB11EE03A46ED
:1024F00059462046FFF7B7F9616A19B104F1240083
:1025000000F080FA28B1C9F80080BFF34F8FBFF305
:102510006F8FFFF731FD012007B0BDE8F08FFFF7A7
:102520002BFD21E06846FFF7FFFD0126FFF724FDA4
:10253000FFF774FEFFF700FD94F94400401C01D141
:1025400084F844A094F94500401C01D184F845A0CA
:10255000FFF712FD05A9684600F02AF930B12046C0
:10256000FFF7ECFB00F08AFA0020D5E7FFF7E4FC68
:10257000A06BE16B884201D1012500E00025FFF747
:10258000FBFC95B104F110000599FFF7DBFD204637
:10259000FFF7D4FB00F072FA00289CD1C9F8008044
:1025A000BFF34F8FBFF36F8F95E72046FFF7C6FB52
:1025B00000F064FA8FE7000004ED00E02DE9F04739
:1025C0001F4690468946040003D0B9F1000F08D099
:1025D00011E0502080F31188BFF34F8FBFF36F8F4E
:1025E000FEE7206C38B1502080F31188BFF34F8F85
:1025F000BFF36F8FFEE7022F0AD1E06B012807D0EF
:10260000502080F31188BFF34F8FBFF36F8FFEE729
:10261000FFF706FD5020EFF3118680F31188BFF31A
:102620004F8FBFF36F8FA06BE16B884206D3022FF1
:1026300004D0002086F31188BDE8F08794F9455056
:102640003A4649462046FFF70EF9681C04D06D1C37
:1026500084F845500120EDE7606A0028FAD004F1C3
:10266000240000F0CFF90028F4D0B8F1000FF1D029
:102670000121C8F80010EDE72DE9F74783B08A463D
:1026800004004FF0000603D0BAF1000F08D011E0AB
:10269000502080F31188BFF34F8FBFF36F8FFEE799
:1026A000206C38B1502080F31188BFF34F8FBFF3F7
:1026B0006F8FFEE700F0E2F8DFF8F09000274FF0B0
:1026C000805848B9059838B1502080F31188BFF37D
:1026D0004F8FBFF36F8FFEE7FFF72EFCA56BC5B1E1
:1026E00051462046FFF7ACF86D1EA563206950B136
:1026F00004F1100000F086F928B1C9F80080BFF39A
:102700004F8FBFF36F8FFFF737FC012006B0BDE896
:10271000F087059808B11EB106E0FFF72DFC27E011
:102720006846FFF701FD0126FFF726FCFFF776FD5F
:10273000FFF702FC94F94400401C01D184F8447076
:1027400094F94500401C01D184F84570FFF714FC52
:1027500005A9684600F02CF8002820460AD0FFF7AB
:10276000EDFA00F08BF92046FFF7A2F90028B3D06C
:102770000020CBE7FFF79CF990B104F12400059904
:10278000FFF7E0FC2046FFF7D9FA00F077F90028C0
:10279000A2D1C9F80080BFF34F8FBFF36F8F9BE7C3
:1027A0002046FFF7CBFA00F069F995E704ED00E069
:1027B0002DE9F0410C46050011D0C4B1FFF7BCFB78
:1027C000174EF1686B682268C81A571C17D02F681B
:1027D000366AB74219D08B4217D8012410E0502036
:1027E00080F31188BFF34F8FBFF36F8FFEE7502048
:1027F00080F31188BFF34F8FBFF36F8FFEE7002484
:10280000FFF7BAFB2046BDE8F081824205D9101AD5
:1028100020602846FFF788FCF1E700202060DCE715
:10282000500600202DE9FF5F8346DDE90E879946BB
:1028300016468A469000FFF7B7FA05001AD05820CE
:10284000FFF7B2FA040012D025630021CDE902415E
:10285000CDE900874B46324651465846FFF798F877
:102860002046FEF75DFF012004B0BDE8F09F28463A
:10287000FFF796FB4FF0FF30F6E70000054841698F
:1028800019B1006B18B10020704701207047022079
:1028900070470000500600200148C06870470000E3
:1028A000500600202DE9F0412E4F0026386B40B134
:1028B000B869401CB861F86900B101263046BDE82E
:1028C000F081FD686D1CFD6013D1786B006838B134
:1028D000502080F31188BFF34F8FBFF36F8FFEE757
:1028E000786BB96B7963B863386A401C3862FFF75C
:1028F000A3F9B86ADFF87080854209D3786B006865
:1029000080B1786BC068C468606885420DD2B862D7
:102910003868C06A00EB800158F821000128CAD944
:102920000126C8E74FF0FF30F1E7201DFFF7BEFAA0
:10293000A06A18B104F11800FFF7B8FAE06A0121A3
:102940003A6981401143396100EB800108EB810055
:10295000211DFFF7E4FAE06A3968C96A8842CDD3DD
:102960000126CBE750060020AC13002070B5040010
:102970004FF0000041D0214D29688C4207D05020F3
:1029800080F31188BFF34F8FBFF36F8FFEE7E16CC9
:1029900071B1491EE164A36CE26A9A422DD000290C
:1029A0002BD1201DFFF782FA1549012240B112E018
:1029B000502080F31188BFF34F8FBFF36F8FFEE776
:1029C000E06A00EB800351F8233023B92B6902FA47
:1029D00000F083432B61A06CE062C0F10F00A061A6
:1029E000E06A2B6982401A432A6100EB800001EB08
:1029F0008000211DFFF793FA012070BD50060020D2
:102A0000AC1300202DE9F041C068C468ACB104F1FA
:102A100018000746FFF74AFA154D286B0126A0B1AA
:102A200039461448FFF77BFAE06A2968C96A884288
:102A30001BD90120EE61BDE8F081502080F31188A0
:102A4000BFF34F8FBFF36F8FFEE7201DFFF72EFA06
:102A5000E06A2A6906FA00F111432961064900EB90
:102A6000800001EB8000211DDCE70020E3E700008F
:102A70005006002000150020AC1300202DE9F0477F
:102A80002C4D00242746286B38B1FFF755FA286BE8
:102A9000401E2863286B40B146E0502080F3118827
:102AA000BFF34F8FBFF36F8FFEE7A868224901265F
:102AB000D0B3A1F5AA798846D8F80010E9B1D8F8C2
:102AC0000C00C46804F11800FFF7F0F9201DFFF7AF
:102AD000EDF9E06A2A6906FA00F11143296100EB79
:102AE000800109EB8100211DFFF719FAE06A2968CE
:102AF000C96A8842E0D3EE61DEE70CB1FFF79CF8CB
:102B0000AC693CB1FFF7CEFE00B1EE61641EF9D1B5
:102B10000020A861E86938B1084901273807086032
:102B2000BFF34F8FBFF36F8FFFF726FA3846BDE82C
:102B3000F0870000500600200015002004ED00E0A2
:102B40001CB5FEF755FE0D48006868B10B49022020
:102B5000091DCDE9000100234FF4827208A10A4843
:102B6000FFF760FE002807D1502080F31188BFF3E3
:102B70004F8FBFF36F8FFEE71CBD00008C06002057
:102B8000546D722053766300151D0008FEB51F4674
:102B90000300089E4FF0000013D0124D2C68002C4B
:102BA0000ED08DE80E00062915DAFFF767FE022821
:102BB0004FF000030DD0002269462868FFF74CFC57
:102BC000FEBD502080F31188BFF34F8FBFF36F8F8E
:102BD000FEE73246F0E700233A4669462046FFF713
:102BE000EDFCFEBD8C060020082C00080000002033
:102BF000C4060000EC020008A42F0008C406002050
:102C0000A4A600000E16000851847A030A68090180
:102C1000020304060708090CA91091721F52CC1C6C
:102C200008304003A11C02031E03211C20FC2003CA
:102C300021270E11113F100C17180404FF84783758
:102C40000F100F0106181D8C30C0781019113311A8
:102C50000E10097884C43498E48408031048703C4A
:102C60000718206025E01804023D40201807682C52
:102C70000418E0071702010F0102024F404080F0E4
:102C800080408839201B8080119380802A0966B19A
:102C9000191CA91F111A0CA4711B031CB83A065F5A
:102CA000194D1D08101008522FF008040408F0F107
:102CB00053081F1E0404FC0404E01A10011A0F40FC
:102CC0001D14244484441A0C0F29D2371804848418
:102CD00044382C01020C31100860A02424FC242468
:102CE000271F11111110101E9804040488EC3607D8
:102CF000081111091BF088111AF838193F431618EA
:102D00003A7C9E1A0E2E29504B3844501A0F6029D7
:102D1000902E80484444889011CB0303C27201195D
:102D200025390F1C020408701E8040201008B03A9C
:102D30000201213A40012119152A023219251B20CE
:102D400040724B0E127019502AEC5D1D0C131417B3
:102D5000702808E018E414F414E8122A1C59280A10
:102D6000043CC44040E41C0410D0192F4B04FCD098
:102D70001B030CA01B101C30191019784B101FB02E
:102D800039201B08F0103E111117100810ACC404B4
:102D90001810113AC070393F39402C44784040191E
:102DA000A418091F1004FC84808084252A1052294D
:102DB0008129424149112E03010101FE0E2F1F11ED
:102DC00003141810501C80641C2F2940292F2980BF
:102DD0001B040C10121F1A1F142E04FC807C804F41
:102DE0004C1F0C03601A047412FC4B0708B06BF004
:102DF00008B029D01A0F301980228089203E14147F
:102E00000C0AF2C04C11110EC014300C044B0E1100
:102E1000C1171C04848444383A189F4A188239A088
:102E200049D0112AF89012F824101E111B131C15FA
:102E30001CE01C70601A109F1129241EC07C807C2D
:102E4000C010481318160101161810040C34C0C025
:102E5000340C04101C132F5950298F29102F041CD7
:102E6000648404046811457F40404025FE0202024C
:102E700074201C032B80600B191D427F191D52FE0C
:102E80000512204040205A01011930D91E29153160
:102E90001D98242448821B080F11418FFC880404CC
:102EA0008870211A70104B04880F23090F29F02A0B
:102EB00008B3395619101A24012AE80F1C0709090A
:102EC000171A04D029D1497A214FD6292929C906B0
:102ED00060190F4C04FC84F354011919793059120C
:102EE0001A032719D1193039311F04FC2460940CBE
:102EF00021AC08081F3069D7294B2903190BC96079
:102F000079A019B02B04F8DD390F8C01FF89E0118D
:102F1000191229E03B89FF2D3950194112048A808A
:102F2000C02ACCE03A98E0394139525A084D190587
:102F300029606C08FC0440114EC0300C30C05D2983
:102F400003380980700C30E01C60801D39A14E8C64
:102F500070748C042C29051D81611E181F59D12104
:102F600067840C3444840C443F404045807C02021A
:102F700072FF29085440403F2C02027CAD19113DDC
:102F8000804040202F01151CFF809F011E80FFFF05
:102F900001F1011A0143551919282849D601791A56
:042FA000AA01410041
:040000050800018965
:00000001FF
