:020000040800F2
:1000000008270020A10100082D0A0008290A00087D
:100010002B0A0008890200087D1B00080000000070
:10002000000000000000000000000000B301000814
:10003000E105000800000000B7010008B901000850
:10004000BB010008BB010008BB010008BB010008A0
:10005000BB010008BB01000829060008BB0100081D
:1000600061060008DD060008BB010008BB010008AE
:10007000BB010008BB010008BB0100086D040008BB
:10008000BB010008BB010008BB010008BB01000860
:10009000BB010008BB010008BB010008BB01000850
:1000A000A9160008BB010008BB010008BB0100083D
:1000B000BB010008BB010008BB010008BB01000830
:1000C000BB010008BB010008BB010008BB01000820
:1000D00071140008711800080D1A0008BB0100080F
:1000E000BB010008BB010008BB010008BB01000800
:1000F000BB010008BB010008BB010008BB010008F0
:10010000BB010008850C0008BB010008BB0100080A
:10011000BB010008BB0100086D170008BB01000807
:10012000BB010008BB010008BB010008BB010008BF
:10013000BB010008BB010008BB010008BB010008AF
:10014000BB010008BB010008BB010008BB0100089F
:10015000C9040008F5040008BB010008BB01000841
:10016000BB010008BB010008BB010008BB0100087F
:10017000BB010008BB010008BB010008BB0100086F
:10018000BB010008BB010008DFF810D000F06AF8DE
:1001900000480047411F0008AFF3008008270020F7
:1001A0000648804706480047FEE7FEE7FEE7FEE711
:1001B000FEE7FEE7FEE7FEE7FEE7FEE7991500082B
:1001C000890100082DE9F05F0546002092469B4614
:1001D00088460646814640241BE02846414647465D
:1001E000224600F02FF853465A46C01A914110D3C8
:1001F00011461846224600F016F82D1A67EB010842
:100200004F4622460120002100F00DF817EB0009AF
:100210004E41201EA4F10104DFDC484631462A4647
:100220004346BDE8F09F202A04DB203A00FA02F1A1
:10023000002070479140C2F1200320FA03F31943D4
:1002400090407047202A04DB203A21FA02F0002176
:10025000704721FA02F3D040C2F1200291400843D6
:1002600019467047064C074D06E0E06840F0010370
:1002700094E8070098471034AC42F6D3FFF788FFA4
:100280002020000840200008FEE770B500254FF44C
:10029000803405E0802000F0E3FC08B144B101E0C7
:1002A000641EF7D240F2FF5000F0B2FC284670BD49
:1002B000032070BD10B504461348016811F0450FC6
:1002C000FBD0042000F0CCFC20B1042000F0A0FC06
:1002D000032010BD012000F0C3FC20B1012000F07C
:1002E00097FC012010BD084824380068A04201D0C6
:1002F000102010BD40F2FF5000F08AFC0248203868
:10030000006800F0080010BD342C014010B5002436
:100310004FF480310E4809E0026812F0450F05D015
:1003200009B1500705D5032404200CE0491EF3D27F
:10033000F7E7012000F094FC18B10124204600F0FA
:1003400067FC40F2FF5000F063FC204610BD000047
:10035000342C014010B50A49086810F0450FFBD055
:10036000042000F07DFC20B1042000F051FC0320AB
:1003700010BD40F2FF5000F04BFC002010BD00000B
:10038000342C014070B506461C480D460024026816
:1003900012F0450FFBD0042000F062FC20B10420D5
:1003A00000F036FC032070BD012000F059FC20B1A4
:1003B000012000F02DFC012070BD10482438006899
:1003C000B04212D140F2FF5000F022FC0B4820381E
:1003D000026812F4604F03D0900404D5132070BD5E
:1003E000100C288007E0500401D5102070BD1004C7
:1003F00001D50F2070BD204670BD0000342C014097
:1004000010B500244FF480320B4809E0016811F068
:10041000450F05D00AB1480705D50324042006E09E
:10042000521EF3D2F7E7480603D50024402000F01F
:10043000EFFB204610BD0000342C014010B50A4CE3
:100440000849204600F06AF80021204600F092F8A2
:100450008021204600F0C2F82046BDE8104001216E
:1004600000F088B8200000207060024070B5084C91
:10047000084D2146284600F087F8002807D021467D
:10048000284600F061F8BDE8704000F005B870BD86
:10049000208000207060024010B50A4C08492046B8
:1004A00000F03CF80021204600F064F8802120464E
:1004B00000F094F82046BDE81040012100F05AB841
:1004C000000800208864024070B5084C084D2146A1
:1004D000284600F059F8002807D02146284600F0A9
:1004E00033F8BDE87040FFF7A9BF70BD0088002059
:1004F0008864024070B5074C074D2146284600F03D
:1005000043F8002805D021462846BDE8704000F099
:100510001BB870BD00802020A0640240074A9042B2
:1005200001D2074801E005481038064A8B0001EA6D
:10053000020101D5C16070478160704710640240BC
:10054000006002407D0F7D0F074A904201D20748AC
:1005500001E005481038064A8B0001EA020101D586
:10056000C1607047816070471064024000600240C3
:100570007D0F7D0F0029016802D041F0010101E0EB
:1005800021F001010160704730B5104A002490420B
:1005900001D20F4A01E00D4A103A0E4B194205D024
:1005A0001E2303EAD12503682B4002E0406900F0D6
:1005B0008003880001D5506800E01068064A1040AA
:1005C000084201D003B10124204630BD106402402E
:1005D000006002403C0F3C0F7D0F7D0F4160704773
:1005E000704700003EB50121480400F069FA002080
:1005F000ADF80800ADF8020042F210700190A7209B
:10060000074CADF800006946204601F0F3F80021E0
:10061000044801F0D1F80021204601F0DAF83EBD8F
:10062000004401400040014010B5012000F0A2F854
:1006300001280CD14102084800F0BBF907490878AD
:10064000401CC0B20870042801D900200870BDE821
:100650001040012000F088B800040240140000207F
:1006600010B5042000F086F801282ED14102194867
:1006700000F09DF9184900220878012806D00228C8
:100680000CD0032812D004281FD117E08878401C12
:10069000C0B28870632818D18A7016E0C878401CF0
:1006A000C0B2C870632810D1CA700EE00879401C2F
:1006B000C0B20871632808D10A7106E04879401C6D
:1006C000C0B24871632800D14A71BDE810400420CF
:1006D00000F04AB8000402401400002010B50820C1
:1006E00000F048F8012835D141021D4800F05FF9BB
:1006F0001C486322017806292CD2DFE801F02B0385
:100700000B131B238178491E11F0FF01817021D149
:1007100082701FE0C178491E11F0FF01C17019D12C
:10072000C27017E00179491E11F0FF01017111D16A
:1007300002710FE04179491E11F0FF01417109D1A9
:10074000427107E04178491E11F0FF01417001D16B
:100750001E214170BDE81040082000F005B80000DF
:1007600000040240140000200149086070470000A6
:10077000143C0140034A0146002012680A4200D09E
:1007800001207047143C01401CB50121084600F0CF
:100790008BF94FF48070009000208DF80400012147
:1007A0008DF807108DF8060002208DF805006946C7
:1007B000034800F0A9F8012001F082FB1CBD0000F5
:1007C000000002402DE9FC5F00244C4F00944FF4E0
:1007D000806801944025C7F81080C7E902540E468E
:1007E0004FF0080B1021C7E900B1A146384600F0D0
:1007F0007DFA1020FFF75EFD002853D14048AA463D
:100800004D460089000438603720C7E9010AC7E96E
:100810000398384600F06AFA3720FFF74BFD0028AE
:1008200040D1411E07F11400C0E9001B3021816056
:100830000221C0E903150121416100F0F9F93320DB
:10084000C7F808A0C7E90050C7E90358384600F0C8
:100850004DFA3320FFF72EFD050023D1DFF8A490D9
:10086000DFF8A0804FF4001B6F46A9F14C0940F25D
:100870002A6AD9F8000010EA0A0F0BD1584600F096
:10088000EFF90028F5D0D8F8000047F82400641CE0
:10089000022CEED3082000F0E3F928B1082000F084
:1008A000B7F90420BDE8FC9F022000F0D9F920B17F
:1008B000022000F0ADF90220F4E7202000F0D0F98A
:1008C00020B1202000F0A4F90620EBE74FF40074DB
:1008D000204600F0C5F920B1204600F099F9072024
:1008E000E0E740F2FF5000F093F9009800BA706022
:1008F000019800BA30602846D4E70000500000207C
:1009000020000020802C0140F0B5002201274FF08C
:10091000030C0B6807FA02F52B40AB422CD106689A
:1009200053000CFA03F4A64306600E79D0F800E0F9
:100930009E4046EA0E0606600E79012E01D0022E78
:1009400012D18668A64386604E79D0F808E09E40B2
:1009500046EA0E0686604668AE43466045688E7974
:100960009640B6B235434560C568A543C560CC79AD
:100970009C40C3681C43C460521C102AC9D3F0BDFC
:100980004B07DB0E9A40C90810B500EB8100016AE5
:100990000F249C40A1430162016A1143016210BD12
:1009A0000246002012690A4200D0012070474183AC
:1009B000704701837047000070B511490868114AFB
:1009C0001040B0F1005F14D00FA001F0D9F8154D20
:1009D0004FF4007421462846FFF7E9FF642001F038
:1009E0004FFA21462846FFF7E4FF642001F048FA59
:1009F000F0E74868096881F30888BDE8704000475F
:100A0000004000080000FE2FB5D8D6B7B4EDCEF3F5
:100A1000A3ACC7EBBCECB2E9C9FDBCB6CEC4BCFE0E
:100A20000D0A000000040240FEE7FEE770470000E8
:100A300030B50F23C27801780125FAB1144A126843
:100A400001F1E02102F4E062C2F5E062C2F30722A4
:100A5000C2F10404D3404278A24084781C4014437D
:100A6000220181F80024007800F01F018D40400928
:100A7000800000F1E020C0F8005130BD01F01F00FF
:100A800085404809800000F1E020C0F8805130BD69
:100A90000CED00E00249084302490860704700007D
:100AA0000000FA050CED00E0044A0029116801D0AD
:100AB000014300E08143116070470000303802407C
:100AC000044A0029116801D0014300E0814311600C
:100AD0007047000044380240044A0029116801D0E0
:100AE000014300E081431160704700002438024058
:100AF00070B5204B1968204C11F00C0104D01F4E2A
:100B0000042903D0082903D004601BE0066019E023
:100B1000184A121F1168C1F38055116801F03F0196
:100B200015B1B6FBF1F101E0B4FBF1F11468126804
:100B3000C4F388146143C2F30142521C5200B1FB5A
:100B4000F2F1016019680F2202EA11110C4A545C9B
:100B50000168E14041601C68072505EA9424145DA2
:100B600021FA04F484601B6805EA5333D25CD14057
:100B7000C16070BD083802400024F40040787D0157
:100B8000000000202DE9FC41002600963546019624
:100B900000B102251B480068800102D50E20BDE887
:100BA000FC81194C6946208980B2FFF70BFE0028B2
:100BB000F5D10198400322D52089144C00044FF050
:100BC000400820603720C4E901084FF480672046C0
:100BD000C4E9036700F08AF83720FFF76BFB0028B1
:100BE000DDD10620C4F80880C4E90050C4E90367D9
:100BF000204600F07BF80620FFF75CFBCFE72520BE
:100C0000CDE70000142C01402000002050000020FF
:100C10000149086070470000382C0140034A116800
:100C200021F0FF010143116070470000042C0140D6
:100C300010B50A4A01681160121D41681160131D48
:100C40001968D0E902242243D0E90440044321F08A
:100C5000F70122430A431A6010BD0000242C014012
:100C6000034A0146002012680A4200D00120704762
:100C7000342C01400248006800F003007047000077
:100C8000002C014000F05ABB30B5094B1A6847F6FA
:100C9000FF618A43017D8468C568214344682C4311
:100CA000214304680069214301431143196030BDA9
:100CB000042C01400B4900200860091D0860091D33
:100CC0000860091D0860074924310860091D086093
:100CD000091D0860034A044938321160111D08607B
:100CE00070470000002C0140FF07C00010B5084A03
:100CF00001681160131D1968D0E901242243D0E96D
:100D0000034004436FF30A0122430A431A6010BDF3
:100D1000082C01400149086070470000002C014088
:100D200010B51049044600200978032917D019B1DD
:100D3000012901D0022911D1B4F5805F0FD0E0B2B2
:100D4000FFF720FF002809D107490A6822F4C052A2
:100D50000A600A6822430A600A680A6010BD2720F8
:100D600010BD000020000020042C01402DE9F047B8
:100D70007A49DFF8EC814FF000090B7880F84E30AB
:100D80000989A0F84C10D8F800104FF0010A0A0E9B
:100D900094090470C2F38304447002F00302827069
:100DA0000A0CC2700A0A02714171D8F80420110EAF
:100DB0000C01C2F3074144EA111401F00F0CC48086
:100DC000C2F3072180F808C0CC094472C1F3801433
:100DD0008472C1F34014C472C1F300140473444616
:100DE00080F80D90A468260EC4F30745C4F30727C6
:100DF00033B1012B04D0032B02D0022B22D02EE0E2
:100E00008907090DD2B241EA820141EA96120261D4
:100E1000C6F3C201017506F00701417569098175C4
:100E2000C5F38201C175A9074B0F394643EAD113B7
:100E30000376521C9B1C9A400AFA0CF35A43C0E9F1
:100E400011230CE09106890A41EA06222A43026135
:100E5000521CD20442644FF4007239468264C1F3DA
:100E60008012427689064A0EE1B242EAD11200F8B7
:100E70001A2F01F07F014170D8F80C20110ECB0918
:100E80008370C1F34113C370C1F3820303718907F7
:100E90000B0FC2F3074143EA91134371C1F34013AF
:100EA000837180F8079001F001010172C2F30721FC
:100EB000CC094472C1F380148472C1F34014C4722B
:100EC000C1F300140473C1F38104447301F00301FE
:100ED0008173C2F34601224AC173103280F810A018
:100EE00011684B460D0E85740D0CC1F3072646EABA
:100EF000052585820D06516854460E0E45EA0645C5
:100F0000C1F3074645EA0625C1F307263543C0F875
:100F1000165000F81A1F91680D0E45700D0CC1F3A4
:100F200007262D0645EA0645C9B245EA0125D168DE
:100F300045EA11654560057AC1F3074245EA121595
:100F40000572C1F30725120745EA12524281C1F327
:100F50004601017344731846BDE8F0872000002065
:100F60007C0000202DE9FE4301213F48FFF79CFD56
:100F70000121CD022846FFF7A3FD01212846FFF7F6
:100F8000ABFD4FF4F850009002208DF804008DF86E
:100F900005000026DFF8D4808DF8066001248DF866
:100FA000074069464046FFF7AFFC0420304F0090F1
:100FB00069463846FFF7A8FC0C2208214046FFF797
:100FC000DFFC0C2209214046FFF7DAFC0C220A2143
:100FD0004046FFF7D5FC0C220B214046FFF7D0FC22
:100FE0000C2211464046FFF7CBFC0C22022138466A
:100FF000FFF7C6FC00212846FFF76EFDFFF75AFEFB
:1010000031208DF808008DF809408DF80A608DF8C0
:101010000B4002A8FFF70CFD00F0BEF8154C80B99C
:1010200000F02CF868B92046FFF7A0FE48B9B4F8E4
:101030004C00000400F0FAF918B92846FFF770FEDA
:1010400018B10D49097803290AD194F84E0048B126
:10105000012807D00820FFF7E1FD002000F0FCF98F
:10106000BDE8FE830A20F6E70C00400000080240BD
:10107000000C02409C000020200000202DE9F84FC9
:101080000120ADF80000FFF7F5FDB0B33F4F387811
:10109000042878D03E4C00250220E4E80250C0200D
:1010A0004FF4806684E861003948083CFFF71EFE73
:1010B000FFF72CF9002822D1DFF8D8A0DAF80010C9
:1010C00033480AF1040B3C300160DBF8001041604A
:1010D0000BF10401096881602E490C310968C16077
:1010E00038784FF003084FF0400950B1012808D07C
:1010F000062806D0022804D010E0FFE72520BDE82E
:10110000F88F84E82003C4E903562148FFF7EEFD79
:1011100069460320FFF736F90028F0D13878032814
:101120000DD1BDF80000000484E80103C4E90356B2
:101130001748FFF7DBFDFFF7E9F80028DFD1387823
:10114000042820D0BDF80000B860000401C40920C4
:1011500001C4C02084E861000D48FFF7C7FDFFF718
:10116000D5F80028CBD1DAF8001009482C300160FE
:10117000DBF80010416007490831096881600549C2
:101180000C310968C1600020B9E700002000002090
:1011900050000020142C01402DE9F05F0027624828
:1011A00076213E460175076047608760C7603C4610
:1011B0003D46B946B8460761FFF766FD0320FFF7D5
:1011C000A9FD5A48016841F480710160DFF858A117
:1011D0004FF4806B0AF1180A5348CAF80080CAF825
:1011E0000480CAF80880CAE9038B1830FFF77EFD37
:1011F000FFF74BF828B17F1CFFB24A2FECD3BDE8B4
:10120000F09F4FF4D570CAF8000008205746CAF87E
:1012100004004020C7E902080001CAF81000424853
:101220001830FFF763FDFFF7EBF820B940490120C4
:101230004FF080490870BA46384641463722402769
:1012400080E88600C0F80C8037483901C346183062
:10125000CAF81010FFF74AFD3720FFF72BF84FF6BA
:10126000FF78A0B35646DFF8C490BA464FF4806BBF
:10127000012709F11009C5B34DE055463720C5E9EE
:1012800000B04FF48068CAF810802748C5E9027B97
:101290005E461830FFF72AFD3720FFF70BF80028CD
:1012A000ADD1244949EA010028602920C5E9010798
:1012B000C5E903681C481830FFF718FDFFF74AF826
:1012C00000289CD1194910310E68F50F641C1DB916
:1012D0004FF6FF718C42D0D34FF6FF718C421CD277
:1012E00016F0804F8BD002221AE012E0124886E8F6
:1012F00081040020C6E9030B0B481830FFF7F6FC09
:10130000FFF728F80028CBD1D9F80010CD0F641CC6
:10131000B1E74445EAD3444501D31B206FE70322DC
:1013200003490A706BE7000038000020042C0140DC
:1013300020000020000010800080FF802DE9F04197
:101340004FF48070FFF78CFC354C364D4CF23A363A
:1013500010B3A878002101280ED0E9703048001F92
:10136000016841F4807101602068B0432060012071
:101370002871E878BDE8F0812B480C22C0E9001202
:101380004022C0E9022111010161FFF7AFFC0C20EE
:10139000FEF790FFE870E1E70220FFF761FC40B143
:1013A0000220FFF735FC2068B04320600220E8707F
:1013B000E0E70820FFF754FC40B10820FFF728FCC5
:1013C0002068B04320600420E870D3E72020FFF7B6
:1013D00047FC40B12020FFF71BFC2068B043206091
:1013E0000620E870C6E71020FFF73AFC40B1102055
:1013F000FFF70EFC2068B04320600520E870B9E7D5
:101400004FF400773846FFF72BFC0028B2D038465F
:10141000FFF7FEFB2068B04320600720E870A9E7D3
:101420003C2C01402000002050000020094910B54C
:10143000086007204860402088600020C8604FF4A2
:10144000806008610846FFF751FCBDE810400720A6
:10145000FEF730BF500000200021012803D010B15A
:10146000262108467047014A5070FAE72000002004
:1014700070B50B4D7121284600F01DF8094C01286C
:1014800001D0206806E07121284600F00DF82068A0
:10149000401C2060B0F5806F01D10020206070BD3D
:1014A000003800401000002001F00F02012191409F
:1014B000C9430181704730B501F00F030125024691
:1014C00005FA03F40020A3B2090905FA01F4918892
:1014D000A4B2128921401A4202D0002900D0012072
:1014E00030BD00000CB50022274900920192086827
:1014F00040F4803008604FF4A043086800F40030E6
:1015000001900098401C0090019810B900989842F2
:10151000F3D10868800334D5012001901A48403087
:10152000026842F0805202601848026842F4404269
:1015300002601548083002680260026842F4004206
:101540000260026842F4A0520260031F104A1A604F
:101550000A6842F080720A600A689201FCD50D495F
:1015600040F205720A60016821F003010160016820
:1015700041F0020101600168C1F381010229FAD141
:101580000CBD01920CBD000000380240007000400C
:1015900019544007003C0240124810B5016841F45C
:1015A000700101601048016841F0010101600E4ABC
:1015B00000210832116002680C4B1A400260031DC2
:1015C0000B4A1A60026822F48022026006480C303E
:1015D0000160FFF787FF03494FF000608039086022
:1015E00010BD000088ED00E000380240FFFFF6FE6D
:1015F00010300024044AFF29105C02D0814301D03E
:101600000020704701207047EC020020024A135C62
:101610008B43135470470000EC020020024A135C15
:101620000B43135470470000EC020020194C4FF498
:1016300000764FF4FA7501210920FFF7DBFF01283E
:1016400010D131462046FFF7B2F9642000F018FCB3
:1016500031462046FFF7ADF9642000F011FC0EA0E2
:1016600000F08EFA02210920FFF7C4FF0128E2D121
:1016700031462046FFF79BF9284600F001FC314631
:101680002046FFF796F9284600F0FAFB04A000F088
:1016900077FAD0E700040240313131310D0A000001
:1016A000323232320D0A000070B52E4D012128462B
:1016B00000F099F801284ED12B4C2178C82902D985
:1016C0000020207040E00320B1FBF0F200FB12107C
:1016D00018B902210020FFF7A1FF20780521B0FBF7
:1016E000F1F201FB120018B904210020FFF796FF68
:1016F00020780A21B0FBF1F201FB120018B9082191
:101700000020FFF78BFF20781421B0FBF1F201FBE2
:10171000120018B910210020FFF780FF2078322135
:10172000B0FBF1F201FB120018B920210020FFF7F5
:1017300075FF20786421B0FBF1F201FB120018B9AB
:1017400040210020FFF76AFF01210020FFF766FF1C
:101750002078401C20702846BDE87040012100F030
:1017600035B80000004001403000002070B5104C3A
:101770000121204600F037F8012813D1616A204684
:101780004FF47A72B1FBF2F30A4A1188491C1180B6
:1017900001EBC10505EB011103EB41015180002173
:1017A00000F017F82046BDE87040012100F00EB8A7
:1017B000001000401A0000200029018802D041F0EA
:1017C000800101E021F0800101807047C94301825E
:1017D00070470029018802D041F0010101E021F0A9
:1017E00001010180704702460020128A0A4200D09F
:1017F0000120704730B50288164C174DA0420DD01D
:10180000A8420BD0B0F1804F08D0144B984205D0BD
:10181000134B984202D0134B984203D122F070032D
:101820004A881A43104B984206D0104B984203D076
:1018300022F440730A891A4302804A68C2620A8805
:101840000285A04201D0A84201D1897A01860121F6
:10185000818230BD000001400004014000040040CE
:1018600000080040000C0040001000400014004040
:101870002DE9F041314E40F225573946304600F00F
:10188000E7F8E8B304210920FFF7B4FE2C4D2D4CF6
:10189000012806D008210920FFF7ACFE012819D045
:1018A00037E0304600F062F9014620882954401C98
:1018B000C005C00D20802CD104210920FFF7A6FE11
:1018C00001210920FFF7AAFE08210920FFF7A6FE43
:1018D00002211BE0304600F049F9014620882A1811
:1018E000401CC00582F80012C00D208011D10821D3
:1018F0000920FFF78BFE02210920FFF78FFE00E091
:101900000BE004210920FFF789FE01210920FFF7E0
:101910007DFE3946304600F084F840F226642146C8
:10192000304600F095F8002805D021463046BDE845
:10193000F04100F076B8BDE8F081000000100140F1
:1019400001030020320000202DE9F04387B01C463F
:1019500091460E00804601D104B1002401211020DF
:10196000FFF7AEF801210846FFF79EF84FF4C0607C
:10197000049002208DF8140001258DF81750214F96
:101980008DF8150004A93846FEF7BEFF072209218D
:101990003846FEF7F5FF07220A213846FEF7F0FF2A
:1019A000ADF808400C20ADF80A000020164CADF848
:1019B0000460ADF80C00CDF80080ADF806906946E3
:1019C000204600F07DF825208DF818008DF819507C
:1019D0008DF81A508DF81B5006A8FFF729F840F231
:1019E000FF31204600F01AF8012240F2255120462E
:1019F00000F04DF80121204600F019F807B0BDE8CD
:101A0000F0830000000002400010014040F2277106
:101A1000014800F006B8000000440040C9430180BE
:101A200070470A0A01219140C9430180704700298B
:101A3000818902D041F4005101E021F400518181FB
:101A400070470246002012880A4200D001207047E9
:101A500070B501F01F0501260024C1F3421306FAF8
:101A600005F2012B0FD0022B0FD0838A4FEA1121F0
:101A70000088134206FA01F600EA060001D000B120
:101A80000124204670BD8389F0E7038AEEE710B594
:101A9000C1F3421301F01F040121A140012B07D023
:101AA000022B07D01430002A026805D00A4304E054
:101AB0000C30F8E71030F6E78A43026010BD0000F2
:101AC0007FB50446008A0D46C98820F44050014382
:101AD0002182A08941F20C618843A9882A89114397
:101AE0006A8902431143A181A08A20F44071A88928
:101AF0000843A0826846FEF7FBFF1A48844202D0E2
:101B00001948844201D1039800E00298A189090490
:101B100000EBC00101EB0010296801D5490000E08D
:101B20008900B0FBF1F06422B0FBF2F109010B096E
:101B30006FF018056B4300EB8300A3891D044FF081
:101B4000320306D503EBC000B0FBF2F000F0070053
:101B500005E003EB0010B0FBF2F000F00F000843CB
:101B600020817FBD00100140001401408088C0F337
:101B700008007047C1F3080181807047FEE700004C
:101B80000FB4054B10B503A9044A029800F018F8E9
:101B900010BC5DF814FB0000E11E000834000020BA
:101BA00002E008C8121F08C1002AFAD17047704726
:101BB000002001E001C1121F002AFBD17047000084
:101BC0002DE9FF4F8DB09B460F460446002606E0E8
:101BD00025280BD05A460F999047641C761C207814
:101BE0000028F5D111B03046BDE8F08F0025A84699
:101BF0000122984900E0054314F8013F203B02FA16
:101C000003F00842F7D120782E2817D114F8010FDD
:101C100045F004052A280ED06FF02F022078A0F19D
:101C2000300109290AD808EB880102EB410100EBD9
:101C30000108641CF2E757F8048B641C20786C28B8
:101C40000DD004DC4C2812D06A2811D104E074288D
:101C50000DD07A280CD10AE045F4001507E0617830
:101C600045F48015814202D1641C05F58015641C81
:101C70002078692844D008DC0028B3D0582867D0E1
:101C800063280FD0642808D13AE0702865D0732803
:101C900012D075285AD078285AD05A460F999047B2
:101CA000761CD5E017F8040B8DF8000000208DF8A5
:101CB0000100E946012003E057F8049B4FF0FF3094
:101CC00069074FF0000501D40AE06D1C45450DDAA7
:101CD0008542FADB19F805100029F6D106E06D1CE3
:101CE0008542FCDB19F805100029F8D12E4404E0E8
:101CF00019F8010B5A460F9990476D1EF8D2A7E0CC
:101D00000A200021CDE90801C5F3025002280CD0B9
:101D100001CFC117021E71F100020CDA0023D0EBD3
:101D2000030063EB01012D2208E0FF1D27F00707E8
:101D3000F7E80201EEE72A0504D52B228DF82820CA
:101D400001223CE0EA073AD02022F7E70A2000E02F
:101D500010200021CDE9080107E01020002145F006
:101D60000405CDE908014FF00808C5F30250022828
:101D700010D001CF00214FF0000A2A0720D5227889
:101D8000702A0DD0DDE908C38CF0100C5CEA030C5E
:101D90000CD015E0FF1D27F00707F7E80201EAE77E
:101DA00040228DF828204FF0010A0CE050EA010390
:101DB00006D030238DF828308DF829200222924653
:101DC0002278582A04D024A20DF120090B9209E0B0
:101DD00026A2F9E7DDE90823FEF7F4F90B9B9B5CEB
:101DE00009F8013D50EA0102F4D1ADEB09002030C1
:101DF0000890680701D44FF001080899884503DD71
:101E00000898A8EB000000E000208046002506E0CE
:101E10000AA85A46405D0F9990476D1C761C55459F
:101E2000F6DB04E030205A460F999047761CB8F153
:101E30000001A8F10108F5DC05E019F8010B5A468C
:101E40000F999047761C0899481E08900029F4DCE9
:101E5000641CC4E60928010030313233343536378A
:101E600038396162636465660000000030313233E6
:101E70003435363738394142434445460000000086
:101E80002DE9F0410D4D002604462E600B4F012137
:101E9000243F3846FFF79DFC00204FF47A7205E09E
:101EA0002E6029689142FCD3401C80B2A042F7D337
:101EB0003846BDE8F0410021FFF78BBC24440140C7
:101EC00010B550B1012802D0022804D105E0FFF777
:101ED00049F8002800D0012010BD084610BD0000C0
:101EE00070B5094D0446C1B22846FFF743FE4021B4
:101EF0002846FFF7A6FD0028F9D040212846FFF725
:101F00008DFD204670BD0000001001401CB5012170
:101F10000220FEF7C9FD4FF40070009001208DF8FB
:101F2000040002218DF8051000218DF806108DF8AF
:101F3000070069460148FEF7E7FC1CBD00040240AB
:101F40004FF4A060FEF7A6FD00231A4619464FF491
:101F5000E130FFF7F9FCFFF7D9FFFEF743FB18A0CC
:101F6000FFF70EFEFEF710FC20B11AA0FFF708FEE7
:101F7000FEF722FD04210920FFF750FB4FF480718A
:101F80001A48FEF70DFDC8B119A0FFF7F9FDFFF7DC
:101F90004DFB1BA0FFF7F4FD1D4D4FF400742146CF
:101FA0002846FEF704FD6420FFF76AFF2146284615
:101FB000FEF7FFFC6420FFF763FFF0E715A0E4E7FE
:101FC000426F6F744C6F616465722056312E300D14
:101FD0000A000000CEC4BCFECFB5CDB3B3F5CABC79
:101FE000BBAFCAA7B0DC0D0A000000000000024031
:101FF000CEB4BCECB2E2B5BD5344BFA80D0A00009C
:10200000C4DAB4E6B5D8D6B7D4BDBDE70D0A000032
:10201000000402405344BFA8B2E5C8EB0D0A00001B
:10202000402000080000002038000000A01B00082D
:102030007820000838000020D0260000B01B0008DF
:10204000000000000102030401020304060708095E
:1020500000000000000019192828000000000000FE
:10206000000100000000000000000000000000006F
:08207000000000000000000068
:040000050800018965
:00000001FF
